:020000040800F2
:1000000000000220E53000089D2F0008A32F000803
:10001000A92F0008AF2F0008B52F0008000000002E
:1000200000000000000000000000000021A4000803
:10003000BB2F00080000000071A60008C92F0008AF
:1000400035310008353100083531000835310008F8
:1000500035310008E32F000835310008353100083C
:1000600035310008353100083531000835310008D8
:1000700035310008353100083531000835310008C8
:1000800035310008353100083531000835310008B8
:1000900035310008353100083531000835310008A8
:1000A000F12F00080530000835310008353100080F
:1000B00035310008353100081930000835310008A5
:1000C0003531000835310008353100083531000878
:1000D0003531000835310008353100082D30000871
:1000E0003531000835310008353100083531000858
:1000F000353100084130000835310008353100083D
:100100003531000835310008353100083531000837
:100110003531000835310008353100083531000827
:100120003531000835310008353100083531000817
:100130003531000835310008353100083531000807
:1001400035310008353100083531000835310008F7
:1001500035310008353100083531000835310008E7
:1001600035310008353100083531000835310008D7
:100170003531000835310008353100080000000035
:0801800035310008353100089B
:1001900010B5054C237833B9044B13B10448AFF3C1
:1001A00000800123237010BD6800002000000000C3
:1001B000C0B5000808B5034B1BB103490348AFF3B2
:1001C000008008BD000000006C000020C0B50008E1
:1001D00001F0FF01102A2BDB10F0070F08D010F8F8
:1001E000013B013A8B422DD010F0070F42B3F6D1FC
:1001F000F0B441EA012141EA014122F007047FF015
:1002000000070023F0E80256083C85EA010586EA6B
:10021000010685FA47F5A3FA87F586FA47F6A5FAA7
:1002200087F68EB9EED1F0BC01F0FF0102F00702B3
:1002300032B110F8013B013A83EA010313B1F8D15E
:100240000020704701387047002D06BF354603383F
:10025000073815F0010F07D1013015F4807F02BF78
:10026000013015F4C03F0130F0BC0138704700BFC9
:1002700081F0004102E000BF83F0004330B54FEA57
:1002800041044FEA430594EA050F08BF90EA020FC4
:100290001FBF54EA000C55EA020C7FEA645C7FEA57
:1002A000655C00F0E2804FEA5454D4EB5555B8BF7A
:1002B0006D420CDD2C4480EA020281EA030382EAEB
:1002C000000083EA010180EA020281EA0303362D7D
:1002D00088BF30BD11F0004F4FEA01314FF4801C50
:1002E0004CEA113102D0404261EB410113F0004F62
:1002F0004FEA03334CEA133302D0524263EB430319
:1003000094EA050F00F0A780A4F10104D5F1200EB6
:100310000DDB02FA0EFC22FA05F2801841F1000111
:1003200003FA0EF2801843FA05F359410EE0A5F1E5
:1003300020050EF1200E012A03FA0EFC28BF4CF016
:10034000020C43FA05F3C01851EBE37101F00045CC
:1003500007D54FF0000EDCF1000C7EEB00006EEBD9
:100360000101B1F5801F1BD3B1F5001F0CD3490863
:100370005FEA30004FEA3C0C04F101044FEA4452BA
:1003800012F5800F80F09A80BCF1004F08BF5FEA41
:10039000500C50F1000041EB045141EA050130BD21
:1003A0005FEA4C0C404141EB0101013C28BFB1F533
:1003B000801FE9D291F0000F04BF01460020B1FA7E
:1003C00081F308BF2033A3F10B03B3F120020CDA51
:1003D0000C3208DD02F1140CC2F10C0201FA0CF02F
:1003E00021FA02F10CE002F11402D8BFC2F1200C94
:1003F00001FA02F120FA0CFCDCBF41EA0C0190404A
:10040000E41AA2BF01EB0451294330BD6FEA040492
:100410001F3C1CDA0C340EDC04F11404C4F120027D
:1004200020FA04F001FA02F340EA030021FA04F38F
:1004300045EA030130BDC4F10C04C4F1200220FAE6
:1004400002F001FA04F340EA0300294630BD21FA24
:1004500004F0294630BD94F0000F83F4801306BFEA
:1004600081F480110134013D4EE77FEA645C18BFDE
:100470007FEA655C29D094EA050F08BF90EA020F75
:1004800005D054EA000C04BF1946104630BD91EA6D
:10049000030F1EBF0021002030BD5FEA545C05D170
:1004A0004000494128BF41F0004130BD14F58004AF
:1004B0003CBF01F5801130BD01F0004545F0FE4123
:1004C00041F470014FF0000030BD7FEA645C1ABF58
:1004D000194610467FEA655C1CBF0B46024650EA8F
:1004E000013406BF52EA033591EA030F41F40021BB
:1004F00030BD00BF90F0000F04BF0021704730B541
:100500004FF4806404F132044FF000054FF0000115
:1005100050E700BF90F0000F04BF0021704730B5D6
:100520004FF4806404F1320410F0004548BF4042AB
:100530004FF000013EE700BF42004FEAE2014FEA00
:1005400031014FEA02701FBF12F07F4393F07F4FDB
:1005500081F06051704732F07F4208BF704793F0DE
:100560007F4F04BF41F40021704730B54FF46074F1
:1005700001F0004521F000411CE700BF50EA0102F4
:1005800008BF704730B54FF000050AE050EA01029D
:1005900008BF704730B511F0004502D5404261EB0D
:1005A00041014FF4806404F132045FEA915C3FF44E
:1005B000D8AE4FF003025FEADC0C18BF03325FEAEB
:1005C000DC0C18BF033202EBDC02C2F1200300FA9C
:1005D00003FC20FA02F001FA03FE40EA0E0021FAC1
:1005E00002F11444BDE600BF70B54FF0FF0C4CF4AF
:1005F000E06C1CEA11541DBF1CEA135594EA0C0F61
:1006000095EA0C0F00F0DEF82C4481EA030621EA9B
:100610004C5123EA4C5350EA013518BF52EA0335D6
:1006200041F4801143F4801338D0A0FB02CE4FF088
:100630000005E1FB02E506F00042E0FB03E54FF0B8
:100640000006E1FB03569CF0000F18BF4EF0010EB0
:10065000A4F1FF04B6F5007F64F5407404D25FEAAC
:100660004E0E6D4146EB060642EAC62141EA55515F
:100670004FEAC52040EA5E504FEACE2EB4F1FD0CA1
:1006800088BFBCF5E06F1ED8BEF1004F08BF5FEA1F
:10069000500E50F1000041EB045170BD06F00046D1
:1006A00046EA010140EA020081EA0301B4EB5C047E
:1006B000C2BFD4EB0C0541EA045170BD41F4801176
:1006C0004FF0000E013C00F3AB8014F1360FDEBF9B
:1006D000002001F0004170BDC4F10004203C35DA77
:1006E0000C341BDC04F11404C4F1200500FA05F3FA
:1006F00020FA04F001FA05F240EA020001F000429B
:1007000021F0004110EBD37021FA04F642EB060110
:100710005EEA430E08BF20EAD37070BDC4F10C043A
:10072000C4F1200500FA04F320FA05F001FA04F2FE
:1007300040EA020001F0004110EBD37041F10001EA
:100740005EEA430E08BF20EAD37070BDC4F12005F5
:1007500000FA05F24EEA020E20FA04F301FA05F25D
:1007600043EA020321FA04F001F0004121FA04F205
:1007700020EA020000EBD3705EEA430E08BF20EAD5
:10078000D37070BD94F0000F0FD101F0004640000F
:1007900041EB010111F4801F08BF013CF7D041EA91
:1007A000060195F0000F18BF704703F00046520095
:1007B00043EB030313F4801F08BF013DF7D043EA66
:1007C0000603704794EA0C0F0CEA135518BF95EA1C
:1007D0000C0F0CD050EA410618BF52EA4306D1D1A3
:1007E00081EA030101F000414FF0000070BD50EAC2
:1007F000410606BF1046194652EA430619D094EA4C
:100800000C0F02D150EA013613D195EA0C0F05D135
:1008100052EA03361CBF104619460AD181EA030189
:1008200001F0004141F0FE4141F470014FF0000041
:1008300070BD41F0FE4141F4780170BD70B54FF0DC
:10084000FF0C4CF4E06C1CEA11541DBF1CEA13555C
:1008500094EA0C0F95EA0C0F00F0A7F8A4EB05043E
:1008600081EA030E52EA03354FEA013100F0888035
:100870004FEA03334FF0805545EA131343EA1263FE
:100880004FEA022245EA111545EA10654FEA0026B3
:100890000EF000419D4208BF964244F1FD0404F56C
:1008A000407402D25B084FEA3202B61A65EB0305C8
:1008B0005B084FEA32024FF480104FF4002CB6EB85
:1008C000020E75EB030E22BFB61A754640EA0C0005
:1008D0005B084FEA3202B6EB020E75EB030E22BF45
:1008E000B61A754640EA5C005B084FEA3202B6EB86
:1008F000020E75EB030E22BFB61A754640EA9C0045
:100900005B084FEA3202B6EB020E75EB030E22BF14
:10091000B61A754640EADC0055EA060E18D04FEAD2
:10092000051545EA16754FEA06164FEAC30343EA72
:1009300052734FEAC2025FEA1C1CC0D111F4801F3F
:100940000BD141EA00014FF000004FF0004CB6E738
:1009500011F4801F04BF01430020B4F1FD0C88BFD7
:10096000BCF5E06F3FF6AFAEB5EB030C04BFB6EBE2
:10097000020C5FEA500C50F1000041EB045170BDD5
:100980000EF0004E4EEA113114EB5C04C2BFD4EB02
:100990000C0541EA045170BD41F480114FF0000E86
:1009A000013C90E645EA060E8DE60CEA135594EA02
:1009B0000C0F08BF95EA0C0F3FF43BAF94EA0C0F05
:1009C0000AD150EA01347FF434AF95EA0C0F7FF47A
:1009D00025AF104619462CE795EA0C0F06D152EACE
:1009E00003353FF4FDAE1046194622E750EA4106B2
:1009F00018BF52EA43067FF4C5AE50EA41047FF4C3
:100A00000DAF52EA43057FF4EBAE12E74FF0FF3C27
:100A100006E000BF4FF0010C02E000BF4FF0010CF8
:100A20004DF804CD4FEA410C7FEA6C5C4FEA430C71
:100A300018BF7FEA6C5C1BD001B050EA410C0CBFC0
:100A400052EA430C91EA030F02BF90EA020F002022
:100A5000704710F1000F91EA030F58BF994208BF89
:100A600090422CBFD8176FEAE37040F00100704746
:100A70004FEA410C7FEA6C5C02D150EA013C07D19D
:100A80004FEA430C7FEA6C5CD6D152EA033CD3D0E8
:100A90005DF8040B704700BF8446104662468C46E2
:100AA0001946634600E000BF01B5FFF7B7FF002815
:100AB00048BF10F1000F01BD4DF808EDFFF7F4FF3E
:100AC0000CBF012000205DF808FB00BF4DF808EDC9
:100AD000FFF7EAFF34BF012000205DF808FB00BFEC
:100AE0004DF808EDFFF7E0FF94BF012000205DF80E
:100AF00008FB00BF4DF808EDFFF7CEFF94BF0120C3
:100B000000205DF808FB00BF4DF808EDFFF7C4FFBB
:100B100034BF012000205DF808FB00BF4FEA41020E
:100B200012F5001215D211D56FF47873B3EB62523F
:100B300012D94FEAC12343F0004343EA505311F066
:100B4000004F23FA02F018BF404270474FF00000F8
:100B5000704750EA013005D111F0004008BF6FF036
:100B6000004070474FF00000704700BF4A0011D2AC
:100B700012F5001211D20DD56FF47873B3EB6252F7
:100B80000ED44FEAC12343F0004343EA505323FA03
:100B900002F070474FF00000704750EA013002D178
:100BA0004FF0FF3070474FF00000704753B94AB91B
:100BB000002908BF00281CBF4FF0FF314FF0FF3065
:100BC00000F070B9ADF1080C6DE904CE00F006F844
:100BD000DDF804E0DDE9022304B070472DE9F047B9
:100BE000089E0D4604460F46002B4AD18A42944681
:100BF00065D9B2FA82F343B102FA03FCC3F12002D1
:100C00009F4020FA02F217439C404FEA1C4E1FFA05
:100C10008CF5B7FBFEF1220C0EFB117742EA07427E
:100C200001FB05F090420AD91CEB020201F1FF37EB
:100C300080F01C81904240F2198102396244121AFC
:100C4000A4B2B2FBFEF00EFB102244EA024400FB09
:100C500005F5A5420AD91CEB040400F1FF3280F02F
:100C60000781A54240F204816444023840EA014011
:100C7000641B00211EB1DC400023C6E90043BDE82F
:100C8000F0878B4208D9002E00F0ED800021C6E9E4
:100C900000050846BDE8F087B3FA83F1002949D181
:100CA000AB4202D3824200F2F880841A65EB030261
:100CB00001201746002EE2D0C6E90047DFE702B95F
:100CC000FFDEB2FA82F3002B40F090808A1A4FEADE
:100CD0001C471FFA8CFE0121B2FBF7F507FB15201C
:100CE000220C42EA00420EFB05F0904208D91CEBB0
:100CF000020205F1FF3802D2904200F2CB80454655
:100D0000121AA4B2B2FBF7F007FB102244EA024425
:100D10000EFB00FEA64508D91CEB040400F1FF32CF
:100D200002D2A64500F2BB801046A4EB0E0440EAB6
:100D300005409FE7C1F120078B4022FA07FC4CEAEF
:100D4000030C05FA01F420FA07F3FD404FEA1C49B1
:100D50002343B5FBF9F81FFA8CFE09FB18551C0C50
:100D600044EA054408FB0EF5A54202FA01F200FA36
:100D700001F00BD91CEB040408F1FF3A80F08880E5
:100D8000A54240F28580A8F102086444641B9DB22C
:100D9000B4FBF9F309FB134445EA044403FB0EFEDC
:100DA000A64508D91CEB040403F1FF356CD2A64517
:100DB0006AD9023B644443EA0843A3FB0295A4EBCF
:100DC0000E04AC42C846AE4656D353D056B1B0EB33
:100DD000080264EB0E0404FA07F7CA40CC4017433C
:100DE000C6E9007418460021BDE8F087C3F1200170
:100DF00002FA03FC20FA01F225FA01F19D402A4390
:100E00004FEA1C471FFA8CFEB1FBF7F007FB1015E9
:100E1000110C41EA054100FB0EF58D4204FA03F482
:100E200008D91CEB010100F1FF382FD28D422DD9DA
:100E300002386144491B92B2B1FBF7F507FB15116B
:100E400042EA014205FB0EF1914208D91CEB020275
:100E500005F1FF3816D2914214D9023D6244521A6C
:100E600045EA004138E73146304608E73946E6E6CC
:100E70001046FBE64845A9D2B9EB020865EB0C0E1B
:100E8000013BA3E74546EAE72B4694E74046D1E716
:100E9000D0467BE7023D624432E708460AE76444F5
:100EA000023842E7704700BF80B500AF02F076FB22
:100EB00000F090F800F088FB00F0EAF800F016F976
:100EC00000F0B2F900F004FA00F056FA00F0A8FAC7
:100ED00000F050FB02F0D6FA05222449244806F01F
:100EE0002EF907F0F9F8234A0021234807F03EF9CC
:100EF0000346224A1360224A0021224807F036F9AD
:100F00000346214A1360214A0021214807F02EF9A7
:100F10000346204A1360204A0021204807F026F9A2
:100F200003461F4A13601F4A00211F4807F01EF99D
:100F300003461E4A13601E4A00211E4807F016F998
:100F400003461D4A13601D4A00211D4807F00EF993
:100F500003461C4A13601C4A00211C4807F006F98E
:100F600003461B4A136007F0DBF8FEE7A4020020EB
:100F700040020020A8B60008D11E0008840200200C
:100F8000CCB60008F11E000888020020F0B6000868
:100F9000D52300088C02002014B70008A9250008FA
:100FA0009002002038B7000849270008940200206A
:100FB0005CB70008712700089802002080B700087D
:100FC000B52900089C020020A4B700083D2A0008AB
:100FD000A002002080B594B000AF07F120033022BA
:100FE0000021184609F012FE07F10C0300221A60D6
:100FF0005A609A60DA601A610023BB60224B1B6C56
:10100000214A43F0805313641F4B1B6C03F0805341
:10101000BB60BB6800237B601C4B1B681B4A43F40E
:1010200080431360194B1B6803F480437B607B682B
:1010300002233B620123FB6210233B630023BB635B
:1010400007F12003184603F071FE0346002B01D080
:1010500001F038FD0F23FB6000233B6100237B611F
:101060000023BB610023FB6107F10C03002118463C
:1010700004F0D4F80346002B01D001F023FD00BF9B
:101080005037BD4680BD00BF0038024000700040B0
:1010900080B500AF124B134A1A60114B124A5A60C6
:1010A0000F4B00229A600E4B0022DA600C4B4FF47B
:1010B00080421A610A4B00225A61094B00229A6150
:1010C000074B0022DA61064B00221A62044802F044
:1010D0006FFE0346002B01D001F0F4FC00BF80BD81
:1010E0008400002000540040A086010080B596B026
:1010F00000AF07F1480300221A605A609A60DA6074
:1011000007F1400300221A605A6007F1240300220D
:101110001A605A609A60DA601A615A619A613B1DDE
:1011200020220021184609F071FD3D4B3D4A1A600E
:101130003B4BA0225A603A4B00229A60384B4FF446
:101140007A72DA60364B00221A61354B00225A61FE
:10115000334B80229A61324804F040FA0346002B58
:1011600001D001F0AFFC4FF48053BB6407F148039A
:1011700019462B4805F0B4F80346002B01D001F0C6
:10118000A1FC274804F079FA0346002B01D001F0B6
:1011900099FC00233B6400237B6407F1400319465C
:1011A0001F4805F00BFE0346002B01D001F08AFC1E
:1011B00060237B620023BB620023FB6200237B630E
:1011C0000023BB630023FB6307F124030C221946B1
:1011D000134804F0C3FF0346002B01D001F072FC5A
:1011E00000237B600023BB600023FB6000233B6186
:1011F00000237B614FF40053BB6100233B623B1D26
:101200001946074805F056FE0346002B01D001F0B1
:1012100059FC034801F038FE00BF5837BD4680BD79
:10122000D80000200000014080B58CB000AF07F16D
:101230000C0324220021184609F0E8FC3B1D002283
:101240001A605A60214B4FF080421A601F4B0022F7
:101250005A601E4B00229A601C4B4FF6FF72DA60F8
:101260001A4B00221A61194B00229A610323FB607A
:1012700000233B6101237B610023BB610A23FB61E7
:1012800000233B6201237B620023BB620A23FB62D3
:1012900007F10C0319460D4804F088FC0346002BA7
:1012A00001D001F00FFC00237B600023BB603B1DDD
:1012B0001946064805F082FD0346002B01D001F0D7
:1012C00001FC00BF3037BD4680BD00BF20010020BB
:1012D00080B58CB000AF07F10C0324220021184622
:1012E00009F094FC3B1D00221A605A60204B214AF1
:1012F0001A601F4B00225A601D4B00229A601C4B43
:101300004FF6FF72DA601A4B00221A61184B002266
:101310009A610323FB6000233B6101237B6100236F
:10132000BB610A23FB6100233B6201237B62002334
:10133000BB620A23FB6207F10C0319460C4804F058
:1013400035FC0346002B01D001F0BCFB00237B6081
:101350000023BB603B1D1946054805F02FFD0346E1
:10136000002B01D001F0AEFB00BF3037BD4680BD81
:10137000680100200004004080B586B000AF07F18E
:10138000100300221A605A603B4600221A605A601D
:101390009A60DA60204B214A1A601F4B0F225A6074
:1013A0001D4B00229A601C4B4FF6FF72DA601A4BFD
:1013B00000221A61184B00229A61174804F07EFA45
:1013C0000346002B01D001F07DFB00233B6100238D
:1013D0007B6107F1100319460F4805F0EFFC034647
:1013E000002B01D001F06EFB00233B6001237B60EA
:1013F0000023BB600023FB603B46002219460648E1
:1014000004F010FE0346002B01D001F05BFB00BF8F
:101410001837BD4680BD00BFB00100200008004065
:1014200080B596B000AF07F1480300221A605A60F9
:101430009A60DA6007F1400300221A605A6007F1EF
:10144000240300221A605A609A60DA601A615A61B5
:101450009A613B1D20220021184609F0D7FB434B1F
:10146000434A1A60414B00225A60404B00229A6066
:101470003E4B41F61F42DA603C4B00221A613B4B67
:1014800000225A61394B00229A61384804F0A6F8CC
:101490000346002B01D001F015FB4FF48053BB64D1
:1014A00007F148031946314804F01AFF0346002BA0
:1014B00001D001F007FB2D4804F0DFF80346002BB4
:1014C00001D001F0FFFA00233B6400237B6407F1A5
:1014D00040031946254805F071FC0346002B01D056
:1014E00001F0F0FA60237B620023BB620023FB6201
:1014F00000233B6300237B630023BB630023FB6368
:1015000007F1240300221946184804F027FE034679
:10151000002B01D001F0D6FA07F12403042219466A
:10152000124804F01BFE0346002B01D001F0CAFA5A
:1015300000237B600023BB600023FB6000233B6132
:1015400000237B614FF40053BB6100233B623B1DD2
:101550001946064805F0AEFC0346002B01D001F009
:10156000B1FA00BF5837BD4680BD00BFF80100206A
:101570000004014080B500AF114B124A1A60104BB5
:101580004FF4E1325A600E4B00229A600C4B00225D
:10159000DA600B4B00221A61094B0C225A61084B8E
:1015A00000229A61064B0022DA61054805F0E8FC4A
:1015B0000346002B01D001F085FA00BF80BD00BFBB
:1015C000400200200048004080B58CB000AF07F119
:1015D0001C0300221A605A609A60DA601A610023C4
:1015E000BB615B4B1B6B5A4A43F010031363584BB0
:1015F0001B6B03F01003BB61BB6900237B61544B81
:101600001B6B534A43F080031363514B1B6B03F076
:1016100080037B617B6900233B614D4B1B6B4C4A14
:1016200043F0010313634A4B1B6B03F001033B615F
:101630003B690023FB60464B1B6B454A43F00203AA
:101640001363434B1B6B03F00203FB60FB68002337
:10165000BB603F4B1B6B3E4A43F0080313633C4B9C
:101660001B6B03F00803BB60BB6800237B60384B37
:101670001B6B374A43F004031363354B1B6B03F0BA
:1016800004037B607B6800224FF4BC61314802F0A8
:101690005BFB00223C21304802F056FB00224FF455
:1016A00080612E4802F050FB00224FF400512C487C
:1016B00002F04AFB4FF4BC63FB6101233B62002351
:1016C0007B620023BB6207F11C031946214802F02C
:1016D0009FF93C23FB6101233B6200237B620223D1
:1016E000BB6207F11C0319461B4802F091F94FF445
:1016F0008063FB6101233B6200237B620023BB62AA
:1017000007F11C031946154802F082F94FF4807363
:10171000FB614FF488133B6200237B6207F11C03DB
:1017200019460F4802F074F94FF40053FB6101238E
:101730003B6200237B620023BB6207F11C03194656
:10174000074802F065F900BF3037BD4680BD00BFD5
:101750000038024000100240000002400004024035
:10176000000C024080B582B000AF786005220449C9
:10177000044805F0E4FC00BF0837BD4680BD00BF4B
:10178000A40200204002002080B483B000AF0346D2
:10179000FB80094B1B6800225A6200BF064B1B6886
:1017A0005A6AFB889A42F9D300BF00BF0C37BD4686
:1017B0005DF8047B704700BFB0010020000000000E
:1017C00080B582B000AF78607B681B7F012B40F052
:1017D0008A80494B1B68002B1BD10021786804F0DC
:1017E00047FE03461A46454B1A60434B01221A60D6
:1017F0007B681B681A6A7B681B6822F00A021A62FF
:101800007B681B681A6A7B681B6842F002021A62D6
:1018100069E0394B1B68012B65D10021786804F021
:1018200027FE03461A46364B1A607B681B68002267
:101830005A62334B1A68314B1B689A420ADD304BAF
:101840001B689AB22D4B1B689BB2D31A9AB22D4BD0
:101850001A8011E0294B1A68294B1B689A420BDD4C
:10186000274B1B689AB2254B1B689BB2D31A9BB2BD
:10187000013B9AB2234B1A80224B1B881846FEF775
:1018800049FE1BA3D3E90023FEF7AEFE02460B463A
:10189000104619464FF000024FF08043FEF7CEFF8E
:1018A00002460B4610461946FFF760F903469AB206
:1018B000154B1A80104B00221A607B681B681A6A4D
:1018C0007B681B6822F00A021A627B681A687B68D0
:1018D0001B68126A1A620D4B1B68DA680B4B1B6897
:1018E00022F00202DA6000BF0837BD4680BD00BFAB
:1018F000006F8104C58FA13F000300200403002076
:10190000080300200C0300200E030020B00100207B
:1019100080B500AF01224FF400510B4802F014FAD9
:101920000A20FFF731FF00224FF40051064802F071
:101930000BFA064B1B68DA68044B1B6842F0020284
:10194000DA6000BF80BD00BF000C0240B001002083
:1019500080B582B000AF87ED000B37A3D3E9002339
:10196000D7E90001FEF740FE02460B461046194635
:1019700033A3D3E90023FEF737FE02460B46C7E93F
:101980000023254B96221A804FF4967006F080FCB7
:10199000224B00221A60224B00221A60214B224A5D
:1019A0001A60224B204A1A60214B1F4A1A60214BB1
:1019B0001D4A1A601E4B1B681846FEF7ABFDD7E99F
:1019C0000023FEF75BFC02460B4610461946FFF764
:1019D000A5F80346164A1360164B1B681846FEF717
:1019E00099FDD7E90023FEF749FC02460B46104655
:1019F0001946FFF793F803460E4A136000BF00F044
:101A00009FF90346002BFAD100BF00BF0837BD463F
:101A100080BD00BFAFF3008000000020BC020020AA
:101A2000B8020020C0020020F8240100C4020020F7
:101A3000C8020020CC0200200000000000C052407C
:101A4000AE47E17A14AEEF3F80B500AF4FF480614E
:101A5000064802F092F94FF47A7001F011FE4FF44B
:101A60008061024802F089F900BF80BD0004024095
:101A700080B582B000AF87ED000B124BD2221A80E6
:101A80004FF4967006F004FC0F4B00221A600F4BC7
:101A900000221A600E4BD3E90001D7E90023FEF7BC
:101AA000EBFB02460B460A49C1E9002300BF00F0E8
:101AB00047F90346002BFAD100BF00BF0837BD46E7
:101AC00080BD00BF00000020BC020020B802002042
:101AD000D002002080B582B000AF87ED000B124B22
:101AE00069221A804FF4967006F0D2FB0F4B002249
:101AF0001A600F4B00221A600E4BD3E90001D7E9A0
:101B00000023FEF7BBFB02460B460A49C1E900234E
:101B100000BF00F015F90346002BFAD100BF00BF4B
:101B20000837BD4680BD00BF00000020BC02002079
:101B3000B8020020D002002080B582B000AF7860EB
:101B400039603B68002B18D07B68002B0ADD01222E
:101B50001021354802F0F8F800222021324802F026
:101B6000F3F822E0002210212F4802F0EDF80122C4
:101B700020212D4802F0E8F817E07B68002B0ADDF1
:101B800001220821284802F0DFF80022042126481B
:101B900002F0DAF809E000220821234802F0D4F824
:101BA00001220421204802F0CFF87B68002BB8BF47
:101BB0005B427B607B68B3F5FA6F02DD40F6B833B9
:101BC0002DE07B68B3F5FA7F02DD40F6C41326E012
:101BD0007B68C82B02DD40F2A46320E07B68642BA5
:101BE00002DD4FF47A731AE07B68022B07DD0F4B9E
:101BF0001B6801330D4A13604FF42F730FE07B68AD
:101C0000002B06DD094B1B680133084A13600023D3
:101C100005E0064B1B680133044A13600023184695
:101C20000837BD4680BD00BF00000240B80200205A
:101C300080B586B000AF87ED020B78604FF00002F0
:101C40003C4BD7E90201FEF7CFFC02460B4610469B
:101C50001946FEF763FF03467B617B68002B18D0B3
:101C60007B69002B0ADD01221021334802F06CF859
:101C700000222021304802F067F822E000221021E3
:101C80002D4802F061F8012220212B4802F05CF877
:101C900017E07B69002B0ADA01220821264802F0AE
:101CA00053F800220421244802F04EF809E00022F3
:101CB0000821214802F048F8012204211E4802F0C0
:101CC00043F87B69002BB8BF5B427B617B69B3F54E
:101CD000967F02DD40F6B83328E07B69C82B02DD31
:101CE00040F6282322E07B69962B02DD40F2A463B4
:101CF0001CE07B69642B02DD40F2DC5316E07B695B
:101D00000A2B02DD4FF4966310E07B69012B07DD9F
:101D10000A4B1B680133094A13604FF47A7305E0DC
:101D2000064B1B680133054A136000231846183719
:101D3000BD4680BD0000244000000240B8020020E3
:101D400080B500AF104B1B68142B1ADD0F4B01221E
:101D50001A600F4B00221A800D4B1A880D4B1A8007
:101D60000D4B1B680D4A13600D4B1B680D4A136029
:101D7000054B00221A604FF4967006F089FA002392
:101D800000E00123184680BDB8020020BC020020FC
:101D9000B4020020B6020020C4020020CC020020C1
:101DA000C0020020C802002080B584B002AF034604
:101DB0003960FB710F4AFB7913700F4B1B789BB294
:101DC0005B0099B20A23009301230A4A0B4802F0F0
:101DD00033F9094B1B789BB25B0099B21423009333
:101DE00002233A68054802F025FA00BF0837BD46CD
:101DF00080BD00BFE002002002000020840000201F
:101E000080B584B002AF03460A46FB711346BB712E
:101E10000A4AFB791370094ABB795370084B1B7847
:101E20009BB25B0099B2142300930223034A054836
:101E300002F002F900BF0837BD4680BDE002002075
:101E4000020000208400002080B500AF00210620A1
:101E5000FFF7D6FF0A2006F01BFA80210320FFF7C8
:101E6000CFFF0A2006F014FA07210720FFF7C8FF6A
:101E70000A2006F00DFA01210620FFF7C1FF0A2013
:101E800006F006FA20217F20FFF7BAFF0A2006F0AD
:101E9000FFF92F210120FFF7B3FF0A2006F0F8F920
:101EA00000210020FFF7ACFF0A2006F0F1F9002125
:101EB0007F20FFF7A5FF0A2006F0EAF9002107209E
:101EC000FFF79EFF0A2006F0E3F900BF80BD000087
:101ED00080B582B000AF78604FF48061034801F0B4
:101EE0004CFF4FF4FA6006F0D3F9F5E7001002401A
:101EF00080B584B000AF7860AB4B00221A80AB4B4A
:101F000000221A800023FB600021A94803F00EFC88
:101F10000421A74803F00AFC0C21A64803F006FCA4
:101F2000A44B1B6896221A644FF47A7006F0B0F93D
:101F3000A14B1A889F4B1B681A64A04BD3E9000180
:101F40009F4BD3E90023FEF797F902460B469D49C4
:101F5000C1E90023984B1B887E2B7AD8994B93EDCF
:101F6000007B0120B0EE470AF0EE670AFFF760FE43
:101F700003461846FEF7CEFA81A3D3E90023FEF705
:101F800033FB02460B4610461946FEF7EFFD0346AB
:101F90009AB2854B1A80844B1B881846FEF7BAFA12
:101FA00079A3D3E90023FEF71FFB02460B46104638
:101FB0001946FEF7DBFD03469AB27C4B1A80814B33
:101FC000D3E900014FF000024FF00003FEF79CFD43
:101FD0000346002B14D0012208217B4801F0B4FEF7
:101FE00000220421784801F0AFFE0022202176482B
:101FF00001F0AAFE01221021734801F0A5FE9AE12A
:10200000694B1B881846FEF785FA61A3D3E90023C4
:10201000FEF7EAFA02460B4610461946FEF7A6FD01
:1020200003469AB2614B1A8000220821664801F0EB
:102030008BFE01220421644801F086FE012220214A
:10204000614801F081FE002210215F4801F07CFE12
:1020500071E1594B1B88BD2B6BD95A4B93ED007B1B
:102060000020B0EE470AF0EE670AFFF7E1FD0346F5
:102070009AB24E4B1A804D4B1B881846FEF74AFA0F
:1020800045A3D3E90023FEF7AFFA02460B461046FC
:102090001946FEF76BFD03469AB2434B1A80494B33
:1020A000D3E900014FF000024FF00003FEF70EFDF0
:1020B0000346002B14D001221021434801F044FEB6
:1020C00000222021404801F03FFE002204213E482A
:1020D00001F03AFE012208213B4801F035FE2AE1D9
:1020E000324B1B881846FEF715FA2DA3D3E90023BF
:1020F000FEF77AFA02460B4610461946FEF736FD01
:1021000003469AB2284B1A80002210212E4801F073
:102110001BFE012220212C4801F016FE0122042181
:10212000294801F011FE00220821274801F00CFE89
:1021300001E1264B1A68264B1B68D31A002118466A
:10214000FFF7FAFC03469AB2174B1A801F4B1A6826
:102150001F4B1B68D31A83EAE372A2EBE3721D4B99
:1021600019681D4B1B68CB1A002BB8BF5B429A4203
:1021700034DDFB680133FB6033E000BFAFF3008068
:102180009A9999999999F13F1F85EB51B81ED53FBE
:102190005C8FC2F5285CDF3FAE47E17A14AED73FD3
:1021A00085EB51B81E85D33FB4020020B602002053
:1021B000F8010020D800002000000020D0020020FC
:1021C000D8020020F802002000000240CC020020CB
:1021D000C4020020C8020020C0020020FB68013BAE
:1021E000FB606D4B1A686D4B1B68D31A13F1630FBC
:1021F00008DB694B1A68694B1B68D31A632B01DC37
:102200000023FB60664B1A68664B1B68D31A0121DA
:102210001846FFF791FC03469AB2634B1A805E4B57
:102220001A685E4B1B68D31A002B42DA5F4BD3E966
:1022300000014FF000025E4BFEF766FC0346002BE8
:1022400003D05C4BA9221A8075E0584BD3E90001FA
:102250004FF00002584BFEF739FC0346002B03D029
:10226000544B83221A8066E0504BD3E900014FF0B3
:102270000002524BFEF7B8F902460B4610461946CB
:102280004FF000024A4BFEF7D9FA02460B461046C1
:1022900019463FA3D3E90023FDF7F0FF02460B46A2
:1022A00010461946FEF762FC03469AB2414B1A806B
:1022B00041E03E4BD3E900014FF000023C4BFEF7FA
:1022C00023FC0346002B03D03A4B83221A8032E0D2
:1022D000364BD3E900014FF00002374BFEF7F6FB17
:1022E0000346002B03D0334BA9221A8023E02F4B47
:1022F000D3E900014FF00002314BFEF775F90246B9
:102300000B46104619464FF00002294BFEF796FA8D
:1023100002460B46104619461DA3D3E90023FDF7DC
:10232000ADFF02460B4610461946FEF71FFC03465A
:102330009AB2204B1A80234B1B68002B0ED0224BE5
:1023400000221A80204B1A88174B1A80134B1B68E7
:10235000114A1360134B1B68114A1360124B1A8801
:102360001A4B1B685A63184B1A88184B1B689A63E0
:10237000012005F08DFF164B1B68B3F57A7F7FF7C0
:10238000D7AD134B40F2E9321A60D1E5AFF30080CC
:102390000000000000C06240CC020020C402002007
:1023A000C8020020C0020020B6020020F80200206F
:1023B0000000144000000020000014C00000334062
:1023C000000033C0BC020020B4020020F80100204D
:1023D000B8020020B0B5A0B004AF78600023BB65A0
:1023E00007F15C0300221A605A609A60DA600023E9
:1023F0007B6407F1480300221A605A609A60DA6031
:1024000000233B6307F1340300221A605A609A608C
:10241000DA600023FB6107F1200300221A605A6092
:102420009A60DA600023BB6007F10C0300221A6097
:102430005A609A60DA604C4B1B881A4607F15803C1
:102440004A49184608F0C2FB07F158031A460A2108
:10245000002000F0E5FF464BD3E90045444BD3E9AB
:10246000002310461946FEF759FB03461846FEF7AF
:1024700051F802460B4620462946FDF7FDFE02466E
:102480000B46104619464FF000023A4BFEF7ACF8E7
:1024900002460B4610461946FEF740FB0346002B4A
:1024A000B8BF5B42FB66324BD3E9002310461946A6
:1024B000FEF734FB024607F14400FB6E2E4908F09C
:1024C00085FB07F144031A461421002000F0A8FF01
:1024D0002A4B1A682A4B1B68D21A2A4B1B8807F111
:1024E0001C00294908F072FB07F11C031A461E2143
:1024F000002000F095FF254B1A68254B1B68D21A67
:10250000244B1B8807F10800234908F05FFB07F103
:1025100008031A462821002000F082FF1F4B1B7879
:102520001C461E4B5B781D461C4B9B781A461B4B6A
:10253000DB781946194B1B7907F1300002930191A2
:1025400000922B462246164908F040FB07F1300363
:102550001A463221002000F063FF00F0EDFD6420F8
:1025600005F096FE67E700BF0E03002048B600089E
:10257000D802002000408F4058B60008CC0200204E
:10258000C4020020B602002068B60008C80200207D
:10259000C0020020B402002074B60008A40200208B
:1025A00080B6000800000000B0B58AB000AF7860C7
:1025B000FFF74AFC00233B8100237B8100237B62E1
:1025C0004FF000024FF00003C7E906234FF000026E
:1025D0004FF00003C7E904230023FB6048E03220EA
:1025E00005F056FE07F1080319463720FFF7DCFB1C
:1025F0003B7A1B021AB27B7A1BB213437B81B7F979
:102600000A301846FDF786FF04460D4601F02CF807
:1026100002467B6AD31A1846FDF76CFF46A3D3E93E
:102620000023FEF70BF902460B4620462946FDF72C
:10263000DBFF02460B46D7E90401FDF71FFE024609
:102640000B46C7E90423B7F90A301846FDF762FFC5
:1026500002460B46D7E90601FDF710FE02460B467F
:10266000C7E9062301F000F87862FB680133FB60DC
:10267000FB68B3F5C87FB2DBFFF7E6F9304B012208
:102680001A60F868FDF746FF02460B46D7E90601D7
:10269000FEF7D4F802460B46C7E9062300F0E4FF34
:1026A0007862642005F0F4FD07F10803194637202D
:1026B000FFF77AFB3B7A1B021AB27B7A1BB21343F9
:1026C0007B81B7F90A301846FDF724FFD7E90623C6
:1026D000FDF7D2FD02460B4614461D4600F0C4FF2E
:1026E00002467B6AD31A1846FDF704FF12A3D3E90A
:1026F0000023FEF7A3F802460B4620462946FDF7C5
:1027000073FF02460B46104619460E4BD3E90023D1
:10271000FDF7B4FD02460B460A49C1E90023B7F9AB
:102720000A30FA68D31AFB6000F09EFF7862FB68FB
:102730000133FB60B5E700BF000000000004D0409B
:1027400010030020D802002080B582B000AF78606E
:102750000021064803F002F941F2883005F098FDA7
:10276000FFF7D6F8642005F093FDF9E7B0010020EB
:1027700080B584B000AF78604123FB720823FB6012
:10278000884B45221A70874B4D225A70854B502238
:102790009A70844B5422DA70824B59221A71824B00
:1027A00000221A607F4B1B78472B0FD17D4B5B7843
:1027B000592B0BD17B4B9B78522B07D1794BDB7874
:1027C0004F2B03D1774B1B79522B15D0754B1B78B0
:1027D000532B08D0734B1B78522B04D0714B1B78B2
:1027E0004C2B40F0C8806F4B5B78462B04D06D4B70
:1027F0005B78422B40F0BF806A4B9B78303B642271
:1028000002FB03F1674BDB78A3F1300213469B0018
:1028100013445B00CA18634B1B79303B1344624A74
:102820001360604B5B78422B04D15F4B1B685B42AB
:102830005D4A13604FF4967005F02AFD594B1B78E2
:10284000473B0C2B00F2978001A252F823F000BF07
:102850004B29000877290008772900087729000804
:102860007729000809290008772900087729000836
:10287000772900087729000877290008C728000869
:1028800085280008484B1B681846FDF743FE0246A2
:102890000B4643EC102BFFF75BF8444B01221A6008
:1028A000404B44221A703F4B4F225A703D4B4E22F0
:1028B0009A703C4B4522DA703A4B21221A716420FF
:1028C00005F0E6FC57E0384B1B681846FDF722FE82
:1028D00002460B4643EC102BFFF7CAF8334B01229C
:1028E0001A60304B44221A702E4B4F225A702D4BD7
:1028F0004E229A702B4B4522DA702A4B21221A71F4
:10290000642005F0C5FC36E0274B1B681846FDF730
:1029100001FE02460B4643EC102BFFF7DBF8234B7E
:1029200001221A601F4B44221A701E4B4F225A700C
:102930001C4B4E229A701B4B4522DA70194B2122F8
:102940001A71642005F0A4FC15E0184B01221A60EE
:10295000144B44221A70134B4F225A70114B4E22C3
:102960009A70104B4522DA700E4B21221A716420A6
:1029700005F08EFC00BF0D4B1B68012B0DD16420B0
:1029800005F086FC07F10B014FF6FF7301220848A2
:1029900004F043FB054B00221A60642005F078FC2C
:1029A000FDE600BFA4020020B0020020AC0200201F
:1029B0004002002080B586B000AF78603C211D4801
:1029C00003F09AF901237B6100F04EFEF86000F0FD
:1029D0004BFE0246FB68D31A0A2BF8D9154B1B682D
:1029E0005B6ABB60BB68B3F5FA4F06DD01237B6110
:1029F000BB68C3F580333B6104E04FF0FF337B617C
:102A0000BB683B617B69012B06D10B4B1A683B69A4
:102A1000D31A094A136005E0074B1A683B6913444F
:102A2000054A1360034B1B6800225A6200F01CFE2B
:102A3000F860CCE768010020C002002080B586B0B5
:102A400000AF78603C211D4803F056F901237B61FB
:102A500000F00AFEF86000F007FE0246FB68D31A99
:102A60000A2BF8D9154B1B685B6ABB60BB68B3F5D2
:102A7000FA4F06DD01237B61BB68C3F580333B6100
:102A800004E04FF0FF337B61BB683B617B69012B46
:102A900006D10B4B1A683B691344094A136005E0E1
:102AA000074B1A683B69D31A054A1360034B1B682E
:102AB00000225A6200F0D8FDF860CCE72001002027
:102AC000C402002080B400AF72B600BFFEE7000071
:102AD00080B582B000AF00237B60164B5B6C154A5B
:102AE00043F480435364134B5B6C03F480437B607B
:102AF0007B6800233B600F4B1B6C0E4A43F08053F6
:102B000013640C4B1B6C03F080533B603B6800224A
:102B10000F216FF0010000F0B2FE00220521052018
:102B200000F0ADFE052000F0C6FE00BF0837BD4630
:102B300080BD00BF0038024080B58AB000AF786029
:102B400007F1140300221A605A609A60DA601A6171
:102B50007B681B68194A93422CD100233B61184BB8
:102B60001B6B174A43F002031363154B1B6B03F0F7
:102B700002033B613B694FF440737B611223BB61ED
:102B80000023FB6103233B6204237B6207F11403F0
:102B900019460C4800F03CFF0023FB60084B1B6CFF
:102BA000074A43F400131364054B1B6C03F4001332
:102BB000FB60FB6800BF2837BD4680BD0054004065
:102BC000003802400004024080B58AB000AF78604F
:102BD00007F1140300221A605A609A60DA601A61E1
:102BE0007B681B682F4A93421ED100233B612E4B0A
:102BF0005B6C2D4A43F0010353642B4B5B6C03F079
:102C000001033B613B6900220521182000F037FEDB
:102C1000182000F050FE00220521192000F02FFEA0
:102C2000192000F048FE38E07B681B681F4A934279
:102C300033D10023FB601C4B5B6C1B4A43F0020347
:102C40005364194B5B6C03F00203FB60FB680023C9
:102C5000BB60154B1B6B144A43F004031363124B08
:102C60001B6B03F00403BB60BB68C0237B610223C2
:102C7000BB610023FB6100233B6203237B6207F1FE
:102C8000140319460A4800F0C3FE002205212D2036
:102C900000F0F5FD2D2000F00EFE00BF2837BD46E8
:102CA00080BD00BF00000140003802400004014028
:102CB0000008024080B58CB000AF786007F11C03BB
:102CC00000221A605A609A60DA601A617B681B6899
:102CD000B3F1804F4BD10023BB613F4B1B6C3E4A8D
:102CE00043F0010313643C4B1B6C03F00103BB6115
:102CF000BB6900237B61384B1B6B374A43F00103F0
:102D00001363354B1B6B03F001037B617B6900236D
:102D10003B61314B1B6B304A43F0020313632E4B74
:102D20001B6B03F002033B613B694FF40043FB6103
:102D300002233B6200237B620023BB620123FB6210
:102D400007F11C031946254800F062FE0823FB61C9
:102D500002233B6200237B620023BB620123FB62F0
:102D600007F11C0319461E4800F052FE30E07B6854
:102D70001B681C4A93422BD10023FB60164B1B6C33
:102D8000154A43F002031364134B1B6C03F0020358
:102D9000FB60FB680023BB600F4B1B6B0E4A43F0CC
:102DA000010313630C4B1B6B03F00103BB60BB6897
:102DB000C023FB6102233B6200237B620023BB62D2
:102DC0000223FB6207F11C031946044800F020FEB1
:102DD00000BF3037BD4680BD0038024000000240D1
:102DE000000402400004004080B58AB000AF786063
:102DF00007F1140300221A605A609A60DA601A61BF
:102E00007B681B681D4A934234D100233B611C4BF5
:102E10001B6C1B4A43F004031364194B1B6C03F037
:102E200004033B613B690023FB60154B1B6B144A99
:102E300043F008031363124B1B6B03F00803FB60A2
:102E4000FB684FF480537B610223BB610023FB616D
:102E500000233B6202237B6207F1140319460948F1
:102E600000F0D6FD002205211E2000F008FD1E20E6
:102E700000F021FD00BF2837BD4680BD000800409E
:102E800000380240000C024080B588B000AF786086
:102E900007F10C0300221A605A609A60DA601A6126
:102EA0007B681B68124A93421ED10023BB60114B02
:102EB0001B6B104A43F0100313630E4B1B6B03F0A4
:102EC0001003BB60BB684FF48043FB6002233B618F
:102ED00000237B610023BB610123FB6107F10C032D
:102EE0001946054800F094FD00BF2037BD4680BD5F
:102EF00000000140003802400010024080B58AB056
:102F000000AF786007F1140300221A605A609A60DB
:102F1000DA601A617B681B681D4A934234D1002332
:102F20003B611C4B1B6C1B4A43F480231364194BFD
:102F30001B6C03F480233B613B690023FB60154B52
:102F40001B6B144A43F004031363124B1B6B03F017
:102F50000403FB60FB684FF440637B610223BB61A9
:102F60000023FB6103233B6207237B6207F1140309
:102F70001946094800F04CFD00220521272000F0E9
:102F80007EFC272000F097FC00BF2837BD4680BD9F
:102F900000480040003802400008024080B400AF02
:102FA000FEE780B400AFFEE780B400AFFEE780B478
:102FB00000AFFEE780B400AFFEE780B400AF00BF13
:102FC000BD465DF8047B704780B500AF00F038FB6C
:102FD00006F096FD0346012B01D007F07DFB00BFF4
:102FE00080BD80B400AF00BFBD465DF8047B704774
:102FF00080B500AF024802F00DFF00BF80BD00BFEA
:10300000D800002080B500AF024802F003FF00BFE7
:1030100080BD00BFD800002080B500AF024802F09C
:10302000F9FE00BF80BD00BFB001002080B500AF39
:10303000024804F0B5F800BF80BD00BF4002002088
:1030400080B500AF024802F0E5FE00BF80BD00BFC2
:10305000F801002080B586B000AF7860144A154BA7
:10306000D31A7B617B693B61134B1B68002B02D138
:10307000114B124A1A60104B1A687B6813443A6964
:103080009A4207D207F020FE03460C221A604FF046
:10309000FF3309E0084B1B68FB60074B1A687B682D
:1030A0001344054A1360FB6818461837BD4680BDB7
:1030B00000000220000400001403002050520020F1
:1030C00080B400AF064BD3F88830054A43F4700350
:1030D000C2F8883000BFBD465DF8047B704700BF72
:1030E00000ED00E0DFF834D00D480E490E4A002311
:1030F00002E0D458C4500433C4188C42F9D30B4AAC
:103100000B4C002301E013600432A242FBD3FFF713
:10311000D7FF07F0DFFDFDF7C7FE70470000022074
:10312000000000206400002088C200086800002021
:103130004C520020FEE7000080B582B000AF0023B3
:10314000FB7126E0FB79503BDBB20021184600F012
:103150002BF80021002000F027F80021102000F0BB
:1031600023F80023BB710DE0BA79FB790D49D20039
:103170000A4413441B780121184600F015F8BB7966
:103180000133BB7197F90630002BEDDAFB7901337F
:10319000FB71FB79072BD5D900BF00BF0837BD46AF
:1031A00080BD00BF1803002080B584B000AF034687
:1031B0000A46FB711346BB71BB79002B06D0012276
:1031C0004FF480711C4800F0BFFD05E000224FF471
:1031D0008071194800F0B8FD0023FB731EE0002247
:1031E0002021154800F0B0FD97F90730002B05DAD3
:1031F00001224021104800F0A7FD04E000224021F8
:103200000D4800F0A1FD012220210B4800F09CFD9B
:10321000FB795B00FB71FB7B0133FB73FB7B072BB3
:10322000DDD901224FF48071034800F08DFD00BF0D
:103230001037BD4680BD00BF0010024080B582B08F
:1032400000AF0023FB7114E00023BB710AE0BA79E0
:10325000FB790C49D2000A44134400221A70BB794E
:103260000133BB7197F90630002BF0DAFB7901339B
:10327000FB71FB79072BE7D9FFF75EFF00BF08372B
:10328000BD4680BD1803002080B485B000AF034662
:10329000FB710B46BB7113467B710023FB7397F9DF
:1032A0000730002B41DBBB793F2B3ED8BB79DB08D5
:1032B000DBB2C3F10703BB73BB7903F007037B7376
:1032C0007B7BC3F10703012202FA03F3FB737B79D3
:1032D000002B12D0FA79BB7B1749D2000A44134461
:1032E0001878FA79BB7BF97B0143C8B21249D20046
:1032F0000A44134402461A7018E0FA79BB7B0E495F
:10330000D2000A4413441B785AB297F90F30DB43BA
:103310005BB2134059B2FA79BB7BC8B20649D200FE
:103320000A44134402461A7000E000BF1437BD4639
:103330005DF8047B704700BF1803002090B585B08E
:1033400000AF0446084611461A462346FB71034661
:10335000BB710B467B7113463B71BB793B737B7929
:10336000203B7B710023BB734DE03B790C2B0BD1D1
:103370007A79B97B284813465B0013449B000344C9
:103380000B441B78FB7307E07A79BB7B234912015E
:103390000A4413441B78FB7300237B732DE097F9D9
:1033A0000F30002B07DA97F82020B979FB791846FF
:1033B000FFF76AFF0CE097F82030002B0CBF0123C9
:1033C0000023DBB21A46B979FB791846FFF75CFF98
:1033D000FB7B5B00FB73BB790133BB71BA793B7B31
:1033E000D21A3B799A4205D13B7BBB71FB79013301
:1033F000FB7105E07B7B01337B737B7B072BCED995
:10340000BB7B0133BB73BA7B3B799A42ADD300BF20
:1034100000BF1437BD4690BDE0B7000854BC00089B
:1034200080B584B002AF03463A60FB710B46BB71B6
:103430001FE0FB797A2B04D90023FB71BB79103391
:10344000BB71BB793A2B05D90023FB71FB79BB71AA
:10345000FFF7F4FE3B681A78B979F87901230093F5
:103460000C23FFF76BFFFB790833FB713B680133DB
:103470003B603B681B78002BDBD100BF00BF0837E7
:10348000BD4680BD80B500AF01F028FC414B1B6FED
:10349000404A23F0010313673E4B1B6F3D4A23F064
:1034A0000403136701F02EFC002280213A4800F04B
:1034B0004BFC642000F0E4F801228021364800F043
:1034C00043FC0021AE20FFF76FFE0021D520FFF75F
:1034D0006BFE00215020FFF767FE0021A820FFF7B8
:1034E00063FE00213F20FFF75FFE0021D320FFF79E
:1034F0005BFE00210020FFF757FE00214020FFF770
:1035000053FE00218D20FFF74FFE00211420FFF70E
:103510004BFE00212020FFF747FE00210220FFF78D
:1035200043FE0021A120FFF73FFE0021C020FFF74E
:103530003BFE0021DA20FFF737FE00211220FFF7C3
:1035400033FE00218120FFF72FFE0021EF20FFF73F
:103550002BFE0021D920FFF727FE0021F120FFF7E5
:1035600023FE0021DB20FFF71FFE00213020FFF7A4
:103570001BFE0021A420FFF717FE0021A620FFF765
:1035800013FE0021AF20FFF70FFEFFF757FE00BF2D
:1035900080BD00BF003802400010024080B500AF7F
:1035A0000E4B1B680D4A43F4007313600B4B1B68F2
:1035B0000A4A43F480631360084B1B68074A43F4CC
:1035C00080731360032000F04FF90F2000F008F81B
:1035D000FFF77EFA0023184680BD00BF003C024082
:1035E00080B582B000AF7860124B1A68124B1B781E
:1035F00019464FF47A73B3FBF1F3B2FBF3F31846B9
:1036000000F067F90346002B01D001230EE07B6830
:103610000F2B0AD8002279684FF0FF3000F02FF905
:10362000064A7B681360002300E001231846083730
:10363000BD4680BD040000200C00002008000020D2
:1036400080B400AF064B1B781A46064B1B68134428
:10365000044A136000BFBD465DF8047B704700BF9D
:103660000C0000201807002080B400AF034B1B683B
:103670001846BD465DF8047B704700BF1807002060
:1036800080B584B000AF7860FFF7EEFFB8607B686C
:10369000FB60FB68B3F1FF3F05D00A4B1B781A466D
:1036A000FB681344FB6000BFFFF7DEFF0246BB6808
:1036B000D31AFA689A42F7D800BF00BF1037BD4648
:1036C00080BD00BF0C00002080B485B000AF7860E2
:1036D0007B6803F00703FB600C4BDB68BB60BA68D8
:1036E0004FF6FF031340BB60FB681A02BB6813432D
:1036F00043F0BF6343F40033BB60044ABB68D3604C
:1037000000BF1437BD465DF8047B704700ED00E054
:1037100080B400AF044BDB681B0A03F007031846B4
:10372000BD465DF8047B704700ED00E080B483B0D7
:1037300000AF0346FB7197F90730002B0BDBFB79D9
:1037400003F01F02074997F907305B09012000FACF
:1037500002F241F8232000BF0C37BD465DF8047B20
:10376000704700BF00E100E080B483B000AF0346C3
:103770003960FB7197F90730002B0ADB3B68DAB23E
:103780000C4997F907301201D2B20B4483F8002399
:103790000AE03B68DAB20849FB7903F00F03043B07
:1037A0001201D2B20B441A7600BF0C37BD465DF849
:1037B000047B704700E100E000ED00E080B489B0D8
:1037C00000AFF860B9607A60FB6803F00703FB6143
:1037D000FB69C3F10703042B28BF0423BB61FB690A
:1037E0000433062B02D9FB69033B00E000237B6115
:1037F0004FF0FF32BB6902FA03F3DA43BB681A40A9
:103800007B699A404FF0FF317B6901FA03F3D9439A
:103810007B680B40134318462437BD465DF8047B94
:103820007047000080B582B000AF78607B68013BD4
:10383000B3F1807F01D301230FE00A4A7B68013B8B
:1038400053600F214FF0FF30FFF78EFF054B002232
:103850009A60044B07221A60002318460837BD46B9
:1038600080BD00BF10E000E080B582B000AF78609E
:103870007868FFF729FF00BF0837BD4680BD80B5D7
:1038800086B000AF0346B9607A60FB7300237B61AA
:10389000FFF73EFF78617A68B9687869FFF78EFFB5
:1038A000024697F90F3011461846FFF75DFF00BF3B
:1038B0001837BD4680BD80B582B000AF0346FB71AE
:1038C00097F907301846FFF731FF00BF0837BD46AC
:1038D00080BD80B582B000AF78607868FFF7A2FF46
:1038E000034618460837BD4680BD80B584B000AF9A
:1038F00078607B689B6DFB60FFF7B6FEB8607B6805
:1039000093F83530DBB2022B08D07B6880225A65F1
:103910007B68002283F83420012352E07B681B6817
:103920001A687B681B6822F016021A607B681B68A5
:103930005A697B681B6822F080025A617B681B6CA5
:10394000002B03D17B689B6C002B07D07B681B6826
:103950001A687B681B6822F008021A607B681B6883
:103960001A687B681B6822F001021A6013E0FFF7F7
:103970007BFE0246BB68D31A052B0CD97B6820223C
:103980005A657B68032283F835207B68002283F820
:103990003420032315E07B681B681B6803F00103D8
:1039A000002BE4D17B68DB6D3F229A40FB689A6074
:1039B0007B68012283F835207B68002283F834205D
:1039C000002318461037BD4680BD80B483B000AFD9
:1039D00078607B6893F83530DBB2022B04D07B68CB
:1039E00080225A6501230CE07B68052283F835208C
:1039F0007B681B681A687B681B6822F001021A60EA
:103A0000002318460C37BD465DF8047B7047000064
:103A100080B489B000AF7860396000237B610023F7
:103A20003B610023BB610023FB616BE10122FB6969
:103A300002FA03F37B613B681B687A6913403B61C0
:103A40003A697B699A4240F05A813B685B6803F0AF
:103A50000303012B05D03B685B6803F00303022BD3
:103A600030D17B689B68BB61FB695B00032202FA73
:103A700003F3DB43BA691340BB613B68DA68FB6957
:103A80005B0002FA03F3BA691343BB617B68BA694E
:103A90009A607B685B68BB610122FB6902FA03F3F1
:103AA000DB43BA691340BB613B685B681B0903F0E9
:103AB0000102FB6902FA03F3BA691343BB617B6835
:103AC000BA695A603B685B6803F00303032B17D0A5
:103AD0007B68DB68BB61FB695B00032202FA03F3CE
:103AE000DB43BA691340BB613B689A68FB695B00C2
:103AF00002FA03F3BA691343BB617B68BA69DA60FF
:103B00003B685B6803F00303022B23D1FB69DA08EF
:103B10007B68083253F82230BB61FB6903F007036E
:103B20009B000F2202FA03F3DB43BA691340BB6127
:103B30003B681A69FB6903F007039B0002FA03F371
:103B4000BA691343BB61FB69DA087B680832B9695B
:103B500043F822107B681B68BB61FB695B00032292
:103B600002FA03F3DB43BA691340BB613B685B684D
:103B700003F00302FB695B0002FA03F3BA69134323
:103B8000BB617B68BA691A603B685B6803F44033C9
:103B9000002B00F0B4800023FB60604B5B6C5F4A3D
:103BA00043F4804353645D4B5B6C03F48043FB60E0
:103BB000FB685B4AFB699B08023352F82330BB6108
:103BC000FB6903F003039B000F2202FA03F3DB43BC
:103BD000BA691340BB617B68524A93422BD07B6821
:103BE000514A934225D07B68504A93421FD07B684C
:103BF0004F4A934219D07B684E4A934213D07B6858
:103C00004D4A93420DD07B684C4A934207D07B6863
:103C10004B4A934201D107230EE008230CE0062310
:103C20000AE0052308E0042306E0032304E002235E
:103C300002E0012300E00023FA6902F0030292008F
:103C40009340BA691343BB613549FB699B08023352
:103C5000BA6941F823203B4B9B68BB613B69DB435E
:103C6000BA691340BB613B685B6803F48013002BA7
:103C700003D0BA693B691343BB61324ABB699360A5
:103C8000304BDB68BB613B69DB43BA691340BB6106
:103C90003B685B6803F40013002B03D0BA693B69EF
:103CA0001343BB61274ABB69D360264B5B68BB618A
:103CB0003B69DB43BA691340BB613B685B6803F453
:103CC0000033002B03D0BA693B691343BB611D4A23
:103CD000BB6953601B4B1B68BB613B69DB43BA6923
:103CE0001340BB613B685B6803F48033002B03D057
:103CF000BA693B691343BB61124ABB691360FB6934
:103D00000133FB61FB690F2B7FF690AE00BF00BF54
:103D10002437BD465DF8047B704700BF0038024081
:103D20000038014000000240000402400008024048
:103D3000000C024000100240001402400018024033
:103D4000001C0240003C014080B483B000AF7860AA
:103D50000B467B8013467B707B78002B03D07A88E0
:103D60007B689A6103E07B881A047B689A6100BFD4
:103D70000C37BD465DF8047B704780B485B000AF5A
:103D800078600B467B807B685B69FB607A88FB68A8
:103D900013401A04FB68D9437B880B401A437B68A5
:103DA0009A6100BF1437BD465DF8047B7047000080
:103DB00080B584B000AF78607B68002B01D101230F
:103DC0002BE17B6893F83D30DBB2002B06D17B689A
:103DD000002283F83C207868FEF7AEFE7B68242240
:103DE00083F83D207B681B681A687B681B6822F09B
:103DF00001021A607B681B681A687B681B6842F4C2
:103E000000421A607B681B681A687B681B6822F492
:103E100000421A6001F0BAFBF8607B685B68814A77
:103E2000934207D8FB68804A934294BF0123002342
:103E3000DBB206E0FB687D4A934294BF0123002376
:103E4000DBB2002B01D00123E7E0FB68784AA2FB3C
:103E500003239B0CBB607B681B685B6823F03F01FE
:103E60007B681B68BA680A435A607B681B681B6AD8
:103E700023F03F017B685B686A4A934202D8BB68C3
:103E8000013309E0BB684FF4967202FB03F3694A01
:103E9000A2FB03239B0901337A6812680B43136268
:103EA0007B681B68DB6923F44F4222F0FF027B68CA
:103EB0005B685C498B4219D8FB68591E7B685B685C
:103EC0005B00B1FBF3F3591C40F6FC730B40002B75
:103ED0000AD0FB68591E7B685B685B00B1FBF3F39B
:103EE0000133C3F30B0351E004234FE07B689B686D
:103EF000002B11D1FB68581E7B6859680B465B008C
:103F00000B44B0FBF3F30133C3F30B03002B0CBFE3
:103F100001230023DBB212E0FB68581E7B6859685E
:103F20000B469B000B4499000B44B0FBF3F30133A9
:103F3000C3F30B03002B0CBF01230023DBB2002BC8
:103F400001D0012322E07B689B68002B0ED1FB6827
:103F5000581E7B6859680B465B000B44B0FBF3F3BB
:103F60000133C3F30B0343F400430FE0FB68581E17
:103F70007B6859680B469B000B4499000B44B0FBCF
:103F8000F3F30133C3F30B0343F440437968096847
:103F90001343CB617B681B681B6823F0C0017B68FF
:103FA000DA697B681B6A1A437B681B680A431A60DC
:103FB0007B681B689B6823F4034323F0FF037A6844
:103FC00011697A68D26811437A6812680B4393606A
:103FD0007B681B68DB6823F0FF017B685A697B689C
:103FE0009B691A437B681B680A43DA607B681B681D
:103FF0001A687B681B6842F001021A607B68002225
:104000001A647B68202283F83D207B6800221A63B3
:104010007B68002283F83E20002318461037BD46F7
:1040200080BD00BFA08601007F841E00FF083D0008
:1040300083DE1B43D34D621080B588B002AFF860B9
:104040007A601A460B467B8113463B81FFF70CFBD7
:104050007861FB6893F83D30DBB2202B40F0E080C4
:104060007B690093192301227049F86800F058FC1D
:104070000346002B01D00223D3E0FB6893F83C30C9
:10408000012B01D10223CCE0FB68012283F83C2004
:10409000FB681B681B6803F00103012B07D0FB685A
:1040A0001B681A68FB681B6842F001021A60FB6813
:1040B0001B681A68FB681B6822F400621A60FB68C0
:1040C000212283F83D20FB68102283F83E20FB6804
:1040D00000221A64FB687A685A62FB683A895A853A
:1040E000FB685B8D9AB2FB681A85FB68504ADA62FE
:1040F00079897B693A6AF86800F0C2FA0346002BB6
:1041000001D001238DE000233B61FB681B685B69E4
:104110003B61FB681B689B693B613B6966E07A69B0
:10412000396AF86800F0D2FC0346002B0DD0FB681A
:104130001B6C042B07D1FB681B681A68FB681B68A3
:1041400042F400721A6001236BE0FB685B6A1A7824
:10415000FB681B681A61FB685B6A5A1CFB685A6241
:10416000FB685B8D9BB2013B9AB2FB685A85FB688A
:104170001B8D013B9AB2FB681A85FB681B685B6963
:1041800003F00403042B1BD1FB681B8D002B17D0FD
:10419000FB685B6A1A78FB681B681A61FB685B6ADC
:1041A0005A1CFB685A62FB685B8D9BB2013B9AB25A
:1041B000FB685A85FB681B8D013B9AB2FB681A8528
:1041C0007A69396AF86800F0C2FC0346002B0DD00A
:1041D000FB681B6C042B07D1FB681B681A68FB6823
:1041E0001B6842F400721A6001231AE0FB681B8D01
:1041F000002B94D1FB681B681A68FB681B6842F4AB
:1042000000721A60FB68202283F83D20FB680022C0
:1042100083F83E20FB68002283F83C20002300E066
:10422000022318461837BD4680BD00BF02001000AB
:104230000000FFFF80B58CB002AFF8607A601A46CC
:104240000B467B8113463B81FFF70EFA7862FB68D1
:1042500093F83D30DBB2202B40F00B827B6A009359
:10426000192301227C49F86800F05AFB0346002B11
:1042700001D00223FEE1FB6893F83C30012B01D111
:104280000223F7E1FB68012283F83C20FB681B68EE
:104290001B6803F00103012B07D0FB681B681A6839
:1042A000FB681B6842F001021A60FB681B681A6811
:1042B000FB681B6822F400621A60FB68222283F804
:1042C0003D20FB68102283F83E20FB6800221A6420
:1042D000FB687A685A62FB683A895A85FB685B8D8D
:1042E0009AB2FB681A85FB685C4ADA6279897B6A54
:1042F0003A6BF86800F046FA0346002B01D0012320
:10430000B8E1FB681B8D002B13D100233B62FB68D7
:104310001B685B693B62FB681B689B693B623B6A8D
:10432000FB681B681A68FB681B6842F400721A601D
:104330008CE1FB681B8D012B1BD1FB681B681A6885
:10434000FB681B6822F480621A600023FB61FB6833
:104350001B685B69FB61FB681B689B69FB61FB6910
:10436000FB681B681A68FB681B6842F400721A60DD
:104370006CE1FB681B8D022B1BD1FB681B681A6864
:10438000FB681B6822F480621A60FB681B681A686D
:10439000FB681B6842F400621A600023BB61FB6883
:1043A0001B685B69BB61FB681B689B69BB61BB6980
:1043B0004CE1FB681B681A68FB681B6842F480626A
:1043C0001A6000237B61FB681B685B697B61FB688B
:1043D0001B689B697B617B6938E1FB681B8D032B44
:1043E00000F2F180FB681B8D012B23D17A6A396BB7
:1043F000F86800F0EDFB0346002B01D0012339E102
:10440000FB681B681A69FB685B6AD2B21A70FB68AA
:104410005B6A5A1CFB685A62FB681B8D013B9AB2AF
:10442000FB681A85FB685B8D9BB2013B9AB2FB6807
:104430005A850BE1FB681B8D022B4ED17B6A0093E2
:104440003B6B00220649F86800F06AFA0346002B2D
:1044500008D001230EE100BF020010000000FFFFA2
:1044600004000100FB681B681A68FB681B6842F4C3
:1044700000721A60FB681B681A69FB685B6AD2B23B
:104480001A70FB685B6A5A1CFB685A62FB681B8DDA
:10449000013B9AB2FB681A85FB685B8D9BB2013BBE
:1044A0009AB2FB685A85FB681B681A69FB685B6AED
:1044B000D2B21A70FB685B6A5A1CFB685A62FB68CE
:1044C0001B8D013B9AB2FB681A85FB685B8D9BB222
:1044D000013B9AB2FB685A85B8E07B6A00933B6B5C
:1044E00000226649F86800F01BFA0346002B01D051
:1044F0000123BFE0FB681B681A68FB681B6822F495
:1045000080621A60FB681B681A69FB685B6AD2B23A
:104510001A70FB685B6A5A1CFB685A62FB681B8D49
:10452000013B9AB2FB681A85FB685B8D9BB2013B2D
:104530009AB2FB685A857B6A00933B6B00224F4915
:10454000F86800F0EDF90346002B01D0012391E05B
:10455000FB681B681A68FB681B6842F400721A60EB
:10456000FB681B681A69FB685B6AD2B21A70FB6849
:104570005B6A5A1CFB685A62FB681B8D013B9AB24E
:10458000FB681A85FB685B8D9BB2013B9AB2FB68A6
:104590005A85FB681B681A69FB685B6AD2B21A709D
:1045A000FB685B6A5A1CFB685A62FB681B8D013B07
:1045B0009AB2FB681A85FB685B8D9BB2013B9AB28D
:1045C000FB685A8542E07A6A396BF86800F000FBB4
:1045D0000346002B01D001234CE0FB681B681A69DD
:1045E000FB685B6AD2B21A70FB685B6A5A1CFB6894
:1045F0005A62FB681B8D013B9AB2FB681A85FB6807
:104600005B8D9BB2013B9AB2FB685A85FB681B68C5
:104610005B6903F00403042B18D1FB681B681A695B
:10462000FB685B6AD2B21A70FB685B6A5A1CFB6853
:104630005A62FB681B8D013B9AB2FB681A85FB68C6
:104640005B8D9BB2013B9AB2FB685A85FB681B8D60
:10465000002B7FF4C2AEFB68202283F83D20FB686C
:10466000002283F83E20FB68002283F83C200023D0
:1046700000E0022318462837BD4680BD0400010033
:1046800080B588B002AFF8607A603B600B467B81F2
:10469000FB68DB6A7B617B69082B06D07B69012B99
:1046A00003D07B6913F5803F08D1FB681B681A684B
:1046B000FB681B6842F480721A600BE0FB681B6B9E
:1046C000122B07D1FB681B681A68FB681B6842F451
:1046D00080721A603B6800937B6800224FF00111E2
:1046E000F86800F01DF90346002B0DD0FB681B682D
:1046F0001B6803F48073B3F5807F03D1FB684FF42C
:1047000000721A64032335E0FB681B69B3F5804F20
:1047100008D17B89DBB21A46FB681B6802F0FE02F7
:104720001A611BE07B89DB11DBB203F00603DBB20D
:1047300063F00F03DAB2FB681B681A613B687A68A2
:104740000E49F86800F043F90346002B01D001231D
:1047500010E07B89DAB2FB681B681A613B687A68F3
:104760000749F86800F033F90346002B01D0012314
:1047700000E0002318461837BD4680BD0800010040
:104780000200010080B588B002AFF8607A603B603B
:104790000B467B81FB68DB6A7B61FB681B681A68E0
:1047A000FB681B6842F480621A607B69082B06D0A4
:1047B0007B69012B03D07B6913F5803F08D1FB682F
:1047C0001B681A68FB681B6842F480721A600BE071
:1047D000FB681B6B112B07D1FB681B681A68FB6811
:1047E0001B6842F480721A603B6800937B68002269
:1047F0004FF00111F86800F093F80346002B0DD03C
:10480000FB681B681B6803F48073B3F5807F03D1DA
:10481000FB684FF400721A64032379E0FB681B699C
:10482000B3F5804F08D17B89DBB243F00103DAB2E4
:10483000FB681B681A615FE07B89DB11DBB203F068
:104840000603DBB263F00F03DAB2FB681B681A6180
:104850003B687A683049F86800F0B9F80346002BE5
:1048600001D0012354E07B89DAB2FB681B681A612E
:104870003B687A682949F86800F0A9F80346002BDC
:1048800001D0012344E000233B61FB681B685B69A6
:104890003B61FB681B689B693B613B69FB681B686C
:1048A0001A68FB681B6842F480721A603B680093C8
:1048B0007B6800224FF00111F86800F031F80346E0
:1048C000002B0DD0FB681B681B6803F48073B3F5E5
:1048D000807F03D1FB684FF400721A64032317E052
:1048E0007B89DB11DBB203F00603DBB263F00E035E
:1048F000DAB2FB681B681A613B687A680749F86896
:1049000000F065F80346002B01D0012300E00023EE
:1049100018461837BD4680BD08000100020001009E
:1049200080B584B000AFF860B9603B601346FB719E
:1049300025E03B68B3F1FF3F21D0FEF795FE02462C
:10494000BB69D31A3A689A4202D33B68002B16D14E
:10495000FB6800221A63FB68202283F83D20FB6875
:10496000002283F83E20FB681B6C43F02002FB68AA
:104970001A64FB68002283F83C20012323E0BB6813
:104980001B0CDBB2012B0DD1FB681B685B69DA43A2
:10499000BB6813409BB2002B0CBF01230023DBB28A
:1049A0001A460CE0FB681B689B69DA43BB6813403E
:1049B0009BB2002B0CBF01230023DBB21A46FB790C
:1049C0009A42B6D0002318461037BD4680BD80B548
:1049D00084B000AFF860B9607A603B6051E0FB687A
:1049E0001B685B6903F48063B3F5806F23D1FB68B8
:1049F0001B681A68FB681B6842F400721A60FB6847
:104A00001B686FF480625A61FB6800221A63FB68BE
:104A1000202283F83D20FB68002283F83E20FB68BB
:104A20001B6C43F00402FB681A64FB68002283F8E5
:104A30003C20012346E07B68B3F1FF3F21D0FEF725
:104A400013FE02463B68D31A7A689A4202D37B6807
:104A5000002B16D1FB6800221A63FB68202283F822
:104A60003D20FB68002283F83E20FB681B6C43F06E
:104A70002002FB681A64FB68002283F83C200123B3
:104A800020E0BB681B0CDBB2012B0CD1FB681B6860
:104A90005B69DA43BB6813409BB2002B14BF012350
:104AA0000023DBB20BE0FB681B689B69DA43BB6841
:104AB00013409BB2002B14BF01230023DBB2002B59
:104AC0008DD1002318461037BD4680BD80B584B017
:104AD00000AFF860B9607A602DE0F86800F0CEF8B9
:104AE0000346002B01D001232DE0BB68B3F1FF3F4B
:104AF00021D0FEF7B9FD02467B68D31ABA689A4204
:104B000002D3BB68002B16D1FB6800221A63FB6836
:104B1000202283F83D20FB68002283F83E20FB68BA
:104B20001B6C43F02002FB681A64FB68002283F8C8
:104B30003C20012307E0FB681B685B6903F08003EE
:104B4000802BCAD1002318461037BD4680BD80B5E2
:104B500084B000AFF860B9607A602DE0F86800F0CA
:104B60008DF80346002B01D001232DE0BB68B3F183
:104B7000FF3F21D0FEF778FD02467B68D31ABA6862
:104B80009A4202D3BB68002B16D1FB6800221A633D
:104B9000FB68202283F83D20FB68002283F83E203A
:104BA000FB681B6C43F02002FB681A64FB68002260
:104BB00083F83C20012307E0FB681B685B6903F076
:104BC0000403042BCAD1002318461037BD4680BD0C
:104BD00080B584B000AFF860B9607A6042E0FB68ED
:104BE0001B685B6903F01003102B19D1FB681B686D
:104BF0006FF010025A61FB6800221A63FB682022E2
:104C000083F83D20FB68002283F83E20FB681A6C85
:104C1000FB681A64FB68002283F83C20012329E02A
:104C2000FEF722FD02467B68D31ABA689A4202D385
:104C3000BB68002B16D1FB6800221A63FB68202298
:104C400083F83D20FB68002283F83E20FB681B6C44
:104C500043F02002FB681A64FB68002283F83C20C2
:104C6000012307E0FB681B685B6903F04003402BEE
:104C7000B5D1002318461037BD4680BD80B483B03F
:104C800000AF78607B681B685B6903F48063B3F5F1
:104C9000806F1BD17B681B686FF480625A617B68F0
:104CA00000221A637B68202283F83D207B68002263
:104CB00083F83E207B681B6C43F004027B681A6417
:104CC0007B68002283F83C20012300E00023184683
:104CD0000C37BD465DF8047B7047000080B483B09C
:104CE00000AF064B01221A60054B1B687B607B6896
:104CF00000BF0C37BD465DF8047B704720000E42B4
:104D00000070004080B483B000AF064B00221A60F0
:104D1000054B1B687B607B6800BF0C37BD465DF8A8
:104D2000047B704720000E420070004080B586B0C2
:104D300000AF78607B68002B01D1012367E27B68BC
:104D40001B6803F00103002B75D0884B9B6803F0B0
:104D50000C03042B0CD0854B9B6803F00C03082B31
:104D600012D1824B5B6803F48003B3F5800F0BD143
:104D70007E4B1B6803F40033002B5BD07B685B68C1
:104D8000002B57D1012342E27B685B68B3F5803F7B
:104D900006D1764B1B68754A43F4803313601DE0DF
:104DA0007B685B68B3F5A02F0CD1704B1B686F4A12
:104DB00043F4802313606D4B1B686C4A43F48033CB
:104DC00013600BE0694B1B68684A23F4803313605F
:104DD000664B1B68654A23F4802313607B685B681D
:104DE000002B13D0FEF740FC386108E0FEF73CFCD6
:104DF00002463B69D31A642B01D9032307E25B4BBC
:104E00001B6803F40033002BF0D014E0FEF72CFCF9
:104E1000386108E0FEF728FC02463B69D31A642B90
:104E200001D90323F3E1514B1B6803F40033002B3A
:104E3000F0D100E000BF7B681B6803F00203002B89
:104E400063D04A4B9B6803F00C03002B0BD0474BFD
:104E50009B6803F00C03082B1CD1444B5B6803F4E4
:104E60008003002B16D1414B1B6803F00203002B7B
:104E700005D07B68DB68012B01D00123C7E13B4BE8
:104E80001B6823F0F8027B681B69DB00374913437A
:104E90000B603AE07B68DB68002B20D0344B0122AA
:104EA0001A60FEF7E1FB386108E0FEF7DDFB024621
:104EB0003B69D31A022B01D90323A8E12B4B1B68B2
:104EC00003F00203002BF0D0284B1B6823F0F802FC
:104ED0007B681B69DB00254913430B6015E0244BFD
:104EE00000221A60FEF7C0FB386108E0FEF7BCFB49
:104EF00002463B69D31A022B01D9032387E11B4BDE
:104F00001B6803F00203002BF0D17B681B6803F0E1
:104F10000803002B36D07B685B69002B16D0154B3D
:104F200001221A60FEF7A0FB386108E0FEF79CFB47
:104F300002463B69D31A022B01D9032367E10B4BCD
:104F40005B6F03F00203002BF0D01BE0094B002243
:104F50001A60FEF789FB38610EE0FEF785FB02461A
:104F60003B69D31A022B07D9032350E100380240D2
:104F700000004742800E4742884B5B6F03F00203FC
:104F8000002BEAD17B681B6803F00403002B00F0C0
:104F900097800023FB75814B1B6C03F08053002B23
:104FA0000FD10023BB607D4B1B6C7C4A43F08053C8
:104FB00013647A4B1B6C03F08053BB60BB68012306
:104FC000FB75774B1B6803F48073002B18D1744B6F
:104FD0001B68734A43F480731360FEF745FB386126
:104FE00008E0FEF741FB02463B69D31A022B01D9C8
:104FF00003230CE16A4B1B6803F48073002BF0D091
:105000007B689B68012B06D1644B1B6F634A43F09E
:10501000010313671CE07B689B68052B0CD15F4B79
:105020001B6F5E4A43F0040313675C4B1B6F5B4AC4
:1050300043F0010313670BE0584B1B6F574A23F0F3
:1050400001031367554B1B6F544A23F00403136786
:105050007B689B68002B15D0FEF706FB38610AE0E1
:10506000FEF702FB02463B69D31A41F288329342B3
:1050700001D90323CBE0494B1B6F03F00203002B44
:10508000EED014E0FEF7F0FA38610AE0FEF7ECFA31
:1050900002463B69D31A41F28832934201D9032375
:1050A000B5E03E4B1B6F03F00203002BEED1FB7DFE
:1050B000012B05D1394B1B6C384A23F08053136404
:1050C0007B689B69002B00F0A180344B9B6803F048
:1050D0000C03082B5CD07B689B69022B41D1314BC0
:1050E00000221A60FEF7C0FA386108E0FEF7BCFA49
:1050F00002463B69D31A022B01D9032387E0274BD1
:105100001B6803F00073002BF0D17B68DA697B68C1
:105110001B6A1A437B685B6A9B011A437B689B6A24
:105120005B08013B1B041A437B68DB6A1B061B49B7
:1051300013434B601B4B01221A60FEF795FA38614E
:1051400008E0FEF791FA02463B69D31A022B01D917
:1051500003235CE0114B1B6803F00073002BF0D0BD
:1051600054E0104B00221A60FEF77EFA386108E026
:10517000FEF77AFA02463B69D31A022B01D90323C0
:1051800045E0064B1B6803F00073002BF0D13DE0B7
:105190007B689B69012B07D1012338E0003802406E
:1051A00000700040600047421B4B5B68FB607B68FF
:1051B0009B69012B28D0FB6803F480027B68DB69C4
:1051C0009A4221D1FB6803F03F027B681B6A9A4236
:1051D0001AD1FA6847F6C07313407A68526A92018E
:1051E000934211D1FB6803F440327B689B6A5B08F1
:1051F000013B1B049A4207D1FB6803F070627B6895
:10520000DB6A1B069A4201D0012300E00023184606
:105210001837BD4680BD00BF0038024080B584B05D
:1052200000AF786039607B68002B01D10123CCE0AE
:10523000684B1B6803F007033A689A420CD9654B28
:105240003A68D2B21A70634B1B6803F007033A68DE
:105250009A4201D00123B8E07B681B6803F0020387
:10526000002B20D07B681B6803F00403002B05D0C3
:10527000594B9B68584A43F4E05393607B681B6822
:1052800003F00803002B05D0534B9B68524A43F4AC
:1052900060439360504B9B6823F0F0027B689B68EF
:1052A0004D4913438B607B681B6803F00103002B9F
:1052B00044D07B685B68012B07D1474B1B6803F424
:1052C0000033002B19D101237FE07B685B68022B40
:1052D00003D07B685B68032B07D13F4B1B6803F04F
:1052E0000073002B09D101236FE03B4B1B6803F0D7
:1052F0000203002B01D1012367E0374B9B6823F0A9
:1053000003027B685B68344913438B60FEF7ACF99A
:10531000F8600AE0FEF7A8F90246FB68D31A41F2EA
:105320008832934201D903234FE02B4B9B6803F053
:105330000C027B685B689B009A42EBD1254B1B6893
:1053400003F007033A689A420CD2224B3A68D2B271
:105350001A70204B1B6803F007033A689A4201D089
:10536000012332E07B681B6803F00403002B08D0A4
:10537000194B9B6823F4E0527B68DB6816491343A2
:105380008B607B681B6803F00803002B09D0124B6D
:105390009B6823F460427B681B69DB000E49134362
:1053A0008B6000F021F802460B4B9B681B0903F051
:1053B0000F030A49CB5C22FA03F3094A1360094B35
:1053C0001B681846FEF70CF9002318461037BD4637
:1053D00080BD00BF003C024000380240C8B7000852
:1053E00004000020080000202DE9B04F90B000AF6D
:1053F00000237B630023FB6300233B630023BB6329
:10540000594B9B6803F00C03082B0DD0082B00F2BE
:10541000A180002B02D0042B03D09BE0534BBB6335
:105420009BE0534BBB6398E04F4B5B6803F03F033B
:105430007B634D4B5B6803F48003002B28D04A4B01
:105440005B689B0900223B627A623B6AC3F30800F7
:105450000021474B03FB01F2002300FB03F313443D
:10546000434AA0FB0212FA620A46BA62FA6A13447D
:10547000FB627B6B0022BB61FA61D7E90623D7E9A7
:105480000A01FBF793FB02460B461346FB6353E00E
:10549000354B5B689B0900223B617A613B69C3F332
:1054A000080A4FF0000B52465B464FF000004FF0E9
:1054B0000001590141EAD261500102460B46B2EBAC
:1054C0000A0863EB0B094FF000024FF000034FEAAC
:1054D000891343EA98634FEA8812B2EB080463EB3E
:1054E00009054FF000024FF00003EB0043EA54734C
:1054F000E20014461D4614EB0A033B6045EB0B0328
:105500007B604FF000024FF00003D7E900452946C9
:105510008B02214643EA915321468A0210461946DE
:105520007B6B0022BB60FA60D7E90223FBF73EFBEE
:1055300002460B461346FB630B4B5B681B0C03F0E8
:10554000030301335B003B63FA6B3B6BB2FBF3F38A
:10555000BB6302E0054BBB6300BFBB6B1846403723
:10556000BD46BDE8B08F00BF003802400024F40003
:1055700040787D0180B400AF034B1B681846BD46E0
:105580005DF8047B704700BF0400002080B500AFC9
:10559000FFF7F0FF0246054B9B689B0A03F00703E9
:1055A0000349CB5C22FA03F3184680BD0038024061
:1055B000D8B7000880B500AFFFF7DCFF0246054B07
:1055C0009B685B0B03F007030349CB5C22FA03F3F0
:1055D000184680BD00380240D8B7000880B582B0B8
:1055E00000AF78607B68002B01D1012341E07B682C
:1055F00093F83D30DBB2002B06D17B68002283F8A4
:105600003C207868FDF7E0FA7B68022283F83D20B1
:105610007B681A687B6804331946104600F094FFD3
:105620007B68012283F846207B68012283F83E20B4
:105630007B68012283F83F207B68012283F84020A9
:105640007B68012283F841207B68012283F8422095
:105650007B68012283F843207B68012283F8442081
:105660007B68012283F845207B68012283F83D2076
:10567000002318460837BD4680BD80B582B000AF14
:1056800078607B68002B01D1012341E07B6893F8AF
:105690003D30DBB2002B06D17B68002283F83C2032
:1056A000786800F039F87B68022283F83D207B6837
:1056B0001A687B6804331946104600F045FF7B6882
:1056C000012283F846207B68012283F83E207B6814
:1056D000012283F83F207B68012283F840207B6809
:1056E000012283F841207B68012283F842207B68F5
:1056F000012283F843207B68012283F844207B68E1
:10570000012283F845207B68012283F83D20002395
:1057100018460837BD4680BD80B483B000AF7860BE
:1057200000BF0C37BD465DF8047B704780B584B080
:1057300000AF786039603B68002B09D17B6893F833
:105740003E30DBB2012B14BF01230023DBB222E089
:105750003B68042B09D17B6893F83F30DBB2012B07
:1057600014BF01230023DBB215E03B68082B09D1ED
:105770007B6893F84030DBB2012B14BF0123002378
:10578000DBB208E07B6893F84130DBB2012B14BF39
:1057900001230023DBB2002B01D001237CE03B6816
:1057A000002B04D17B68022283F83E2013E03B6883
:1057B000042B04D17B68022283F83F200BE03B6876
:1057C000082B04D17B68022283F8402003E07B6829
:1057D000022283F841207B681B6801223968184641
:1057E00001F0C6FA7B681B682D4A934204D07B689F
:1057F0001B682C4A934201D1012300E00023002BB7
:1058000007D07B681B685A6C7B681B6842F40042B7
:105810005A647B681B68224A934222D07B681B68CB
:10582000B3F1804F1DD07B681B681F4A934218D08C
:105830007B681B681D4A934213D07B681B681C4A17
:1058400093420ED07B681B68164A934209D07B684E
:105850001B68184A934204D07B681B68164A93421F
:1058600011D17B681B689B6803F00703FB60FB6832
:10587000062B10D07B681B681A687B681B6842F097
:1058800001021A6007E07B681B681A687B681B6866
:1058900042F001021A60002318461037BD4680BD51
:1058A00000000140000401400004004000080040E6
:1058B000000C0040004001400018004080B582B05C
:1058C00000AF78607B68002B01D1012341E07B6849
:1058D00093F83D30DBB2002B06D17B68002283F8C1
:1058E0003C207868FDF780FA7B68022283F83D202F
:1058F0007B681A687B6804331946104600F024FE62
:105900007B68012283F846207B68012283F83E20D1
:105910007B68012283F83F207B68012283F84020C6
:105920007B68012283F841207B68012283F84220B2
:105930007B68012283F843207B68012283F844209E
:105940007B68012283F845207B68012283F83D2093
:10595000002318460837BD4680BD000080B584B0DE
:1059600000AF786039600023FB733B68002B04D1E3
:105970007B6893F83E30DBB213E03B68042B04D124
:105980007B6893F83F30DBB20BE03B68082B04D117
:105990007B6893F84030DBB203E07B6893F84130DA
:1059A000DBB2BB733B68002B04D17B6893F84230B9
:1059B000DBB213E03B68042B04D17B6893F84330DF
:1059C000DBB20BE03B68082B04D17B6893F84430D2
:1059D000DBB203E07B6893F84530DBB27B73BB7BC3
:1059E000012B02D17B7B012B01D00123CCE03B6852
:1059F000002B04D17B68022283F83E2013E03B6831
:105A0000042B04D17B68022283F83F200BE03B6823
:105A1000082B04D17B68022283F8402003E07B68D6
:105A2000022283F841203B68002B04D17B680222CC
:105A300083F8422013E03B68042B04D17B680222E8
:105A400083F843200BE03B68082B04D17B680222DB
:105A500083F8442003E07B68022283F845203B68FA
:105A60000C2B41D801A252F823F000BFA15A000824
:105A7000E95A0008E95A0008E95A0008B35A000830
:105A8000E95A0008E95A0008E95A0008C55A00080E
:105A9000E95A0008E95A0008E95A0008D75A0008EC
:105AA0007B681B68DA687B681B6842F00202DA6078
:105AB0001DE07B681B68DA687B681B6842F00402A3
:105AC000DA6014E07B681B68DA687B681B6842F068
:105AD0000802DA600BE07B681B68DA687B681B6889
