:020000040800F2
:1000000000000220B53E00086D3D0008733D000869
:10001000793D00087F3D0008853D00080000000094
:10002000000000000000000000000000F1B900081E
:100030008B3D00080000000041BC0008993D00080D
:10004000053F0008053F0008053F0008053F000880
:10005000053F0008B33D0008053F0008053F0008C4
:10006000053F0008053F0008053F0008053F000860
:10007000053F0008053F0008053F0008053F000850
:10008000053F0008053F0008053F0008053F000840
:10009000053F0008053F0008053F0008053F000830
:1000A000C13D0008D53D0008053F0008053F000898
:1000B000053F0008053F0008E93D0008053F00082E
:1000C000053F0008053F0008053F0008053F000800
:1000D000053F0008053F0008053F0008FD3D0008FA
:1000E000053F0008053F0008053F0008053F0008E0
:1000F000053F0008113E0008053F0008053F0008C5
:10010000053F0008053F0008053F0008053F0008BF
:10011000053F0008053F0008053F0008053F0008AF
:10012000053F0008053F0008053F0008053F00089F
:10013000053F0008053F0008053F0008053F00088F
:10014000053F0008053F0008053F0008053F00087F
:10015000053F0008053F0008053F0008053F00086F
:10016000053F0008053F0008053F0008053F00085F
:10017000053F0008053F0008053F0008000000009B
:08018000053F0008053F0008DF
:1001900010B5054C237833B9044B13B10448AFF3C1
:1001A00000800123237010BD7800002000000000B3
:1001B00048DA000808B5034B1BB103490348AFF305
:1001C000008008BD000000007C00002048DA000824
:1001D00001F0FF01102A2BDB10F0070F08D010F8F8
:1001E000013B013A8B422DD010F0070F42B3F6D1FC
:1001F000F0B441EA012141EA014122F007047FF015
:1002000000070023F0E80256083C85EA010586EA6B
:10021000010685FA47F5A3FA87F586FA47F6A5FAA7
:1002200087F68EB9EED1F0BC01F0FF0102F00702B3
:1002300032B110F8013B013A83EA010313B1F8D15E
:100240000020704701387047002D06BF354603383F
:10025000073815F0010F07D1013015F4807F02BF78
:10026000013015F4C03F0130F0BC0138704700BFC9
:1002700081F0004102E000BF83F0004330B54FEA57
:1002800041044FEA430594EA050F08BF90EA020FC4
:100290001FBF54EA000C55EA020C7FEA645C7FEA57
:1002A000655C00F0E2804FEA5454D4EB5555B8BF7A
:1002B0006D420CDD2C4480EA020281EA030382EAEB
:1002C000000083EA010180EA020281EA0303362D7D
:1002D00088BF30BD11F0004F4FEA01314FF4801C50
:1002E0004CEA113102D0404261EB410113F0004F62
:1002F0004FEA03334CEA133302D0524263EB430319
:1003000094EA050F00F0A780A4F10104D5F1200EB6
:100310000DDB02FA0EFC22FA05F2801841F1000111
:1003200003FA0EF2801843FA05F359410EE0A5F1E5
:1003300020050EF1200E012A03FA0EFC28BF4CF016
:10034000020C43FA05F3C01851EBE37101F00045CC
:1003500007D54FF0000EDCF1000C7EEB00006EEBD9
:100360000101B1F5801F1BD3B1F5001F0CD3490863
:100370005FEA30004FEA3C0C04F101044FEA4452BA
:1003800012F5800F80F09A80BCF1004F08BF5FEA41
:10039000500C50F1000041EB045141EA050130BD21
:1003A0005FEA4C0C404141EB0101013C28BFB1F533
:1003B000801FE9D291F0000F04BF01460020B1FA7E
:1003C00081F308BF2033A3F10B03B3F120020CDA51
:1003D0000C3208DD02F1140CC2F10C0201FA0CF02F
:1003E00021FA02F10CE002F11402D8BFC2F1200C94
:1003F00001FA02F120FA0CFCDCBF41EA0C0190404A
:10040000E41AA2BF01EB0451294330BD6FEA040492
:100410001F3C1CDA0C340EDC04F11404C4F120027D
:1004200020FA04F001FA02F340EA030021FA04F38F
:1004300045EA030130BDC4F10C04C4F1200220FAE6
:1004400002F001FA04F340EA0300294630BD21FA24
:1004500004F0294630BD94F0000F83F4801306BFEA
:1004600081F480110134013D4EE77FEA645C18BFDE
:100470007FEA655C29D094EA050F08BF90EA020F75
:1004800005D054EA000C04BF1946104630BD91EA6D
:10049000030F1EBF0021002030BD5FEA545C05D170
:1004A0004000494128BF41F0004130BD14F58004AF
:1004B0003CBF01F5801130BD01F0004545F0FE4123
:1004C00041F470014FF0000030BD7FEA645C1ABF58
:1004D000194610467FEA655C1CBF0B46024650EA8F
:1004E000013406BF52EA033591EA030F41F40021BB
:1004F00030BD00BF90F0000F04BF0021704730B541
:100500004FF4806404F132044FF000054FF0000115
:1005100050E700BF90F0000F04BF0021704730B5D6
:100520004FF4806404F1320410F0004548BF4042AB
:100530004FF000013EE700BF42004FEAE2014FEA00
:1005400031014FEA02701FBF12F07F4393F07F4FDB
:1005500081F06051704732F07F4208BF704793F0DE
:100560007F4F04BF41F40021704730B54FF46074F1
:1005700001F0004521F000411CE700BF50EA0102F4
:1005800008BF704730B54FF000050AE050EA01029D
:1005900008BF704730B511F0004502D5404261EB0D
:1005A00041014FF4806404F132045FEA915C3FF44E
:1005B000D8AE4FF003025FEADC0C18BF03325FEAEB
:1005C000DC0C18BF033202EBDC02C2F1200300FA9C
:1005D00003FC20FA02F001FA03FE40EA0E0021FAC1
:1005E00002F11444BDE600BF70B54FF0FF0C4CF4AF
:1005F000E06C1CEA11541DBF1CEA135594EA0C0F61
:1006000095EA0C0F00F0DEF82C4481EA030621EA9B
:100610004C5123EA4C5350EA013518BF52EA0335D6
:1006200041F4801143F4801338D0A0FB02CE4FF088
:100630000005E1FB02E506F00042E0FB03E54FF0B8
:100640000006E1FB03569CF0000F18BF4EF0010EB0
:10065000A4F1FF04B6F5007F64F5407404D25FEAAC
:100660004E0E6D4146EB060642EAC62141EA55515F
:100670004FEAC52040EA5E504FEACE2EB4F1FD0CA1
:1006800088BFBCF5E06F1ED8BEF1004F08BF5FEA1F
:10069000500E50F1000041EB045170BD06F00046D1
:1006A00046EA010140EA020081EA0301B4EB5C047E
:1006B000C2BFD4EB0C0541EA045170BD41F4801176
:1006C0004FF0000E013C00F3AB8014F1360FDEBF9B
:1006D000002001F0004170BDC4F10004203C35DA77
:1006E0000C341BDC04F11404C4F1200500FA05F3FA
:1006F00020FA04F001FA05F240EA020001F000429B
:1007000021F0004110EBD37021FA04F642EB060110
:100710005EEA430E08BF20EAD37070BDC4F10C043A
:10072000C4F1200500FA04F320FA05F001FA04F2FE
:1007300040EA020001F0004110EBD37041F10001EA
:100740005EEA430E08BF20EAD37070BDC4F12005F5
:1007500000FA05F24EEA020E20FA04F301FA05F25D
:1007600043EA020321FA04F001F0004121FA04F205
:1007700020EA020000EBD3705EEA430E08BF20EAD5
:10078000D37070BD94F0000F0FD101F0004640000F
:1007900041EB010111F4801F08BF013CF7D041EA91
:1007A000060195F0000F18BF704703F00046520095
:1007B00043EB030313F4801F08BF013DF7D043EA66
:1007C0000603704794EA0C0F0CEA135518BF95EA1C
:1007D0000C0F0CD050EA410618BF52EA4306D1D1A3
:1007E00081EA030101F000414FF0000070BD50EAC2
:1007F000410606BF1046194652EA430619D094EA4C
:100800000C0F02D150EA013613D195EA0C0F05D135
:1008100052EA03361CBF104619460AD181EA030189
:1008200001F0004141F0FE4141F470014FF0000041
:1008300070BD41F0FE4141F4780170BD70B54FF0DC
:10084000FF0C4CF4E06C1CEA11541DBF1CEA13555C
:1008500094EA0C0F95EA0C0F00F0A7F8A4EB05043E
:1008600081EA030E52EA03354FEA013100F0888035
:100870004FEA03334FF0805545EA131343EA1263FE
:100880004FEA022245EA111545EA10654FEA0026B3
:100890000EF000419D4208BF964244F1FD0404F56C
:1008A000407402D25B084FEA3202B61A65EB0305C8
:1008B0005B084FEA32024FF480104FF4002CB6EB85
:1008C000020E75EB030E22BFB61A754640EA0C0005
:1008D0005B084FEA3202B6EB020E75EB030E22BF45
:1008E000B61A754640EA5C005B084FEA3202B6EB86
:1008F000020E75EB030E22BFB61A754640EA9C0045
:100900005B084FEA3202B6EB020E75EB030E22BF14
:10091000B61A754640EADC0055EA060E18D04FEAD2
:10092000051545EA16754FEA06164FEAC30343EA72
:1009300052734FEAC2025FEA1C1CC0D111F4801F3F
:100940000BD141EA00014FF000004FF0004CB6E738
:1009500011F4801F04BF01430020B4F1FD0C88BFD7
:10096000BCF5E06F3FF6AFAEB5EB030C04BFB6EBE2
:10097000020C5FEA500C50F1000041EB045170BDD5
:100980000EF0004E4EEA113114EB5C04C2BFD4EB02
:100990000C0541EA045170BD41F480114FF0000E86
:1009A000013C90E645EA060E8DE60CEA135594EA02
:1009B0000C0F08BF95EA0C0F3FF43BAF94EA0C0F05
:1009C0000AD150EA01347FF434AF95EA0C0F7FF47A
:1009D00025AF104619462CE795EA0C0F06D152EACE
:1009E00003353FF4FDAE1046194622E750EA4106B2
:1009F00018BF52EA43067FF4C5AE50EA41047FF4C3
:100A00000DAF52EA43057FF4EBAE12E74FF0FF3C27
:100A100006E000BF4FF0010C02E000BF4FF0010CF8
:100A20004DF804CD4FEA410C7FEA6C5C4FEA430C71
:100A300018BF7FEA6C5C1BD001B050EA410C0CBFC0
:100A400052EA430C91EA030F02BF90EA020F002022
:100A5000704710F1000F91EA030F58BF994208BF89
:100A600090422CBFD8176FEAE37040F00100704746
:100A70004FEA410C7FEA6C5C02D150EA013C07D19D
:100A80004FEA430C7FEA6C5CD6D152EA033CD3D0E8
:100A90005DF8040B704700BF8446104662468C46E2
:100AA0001946634600E000BF01B5FFF7B7FF002815
:100AB00048BF10F1000F01BD4DF808EDFFF7F4FF3E
:100AC0000CBF012000205DF808FB00BF4DF808EDC9
:100AD000FFF7EAFF34BF012000205DF808FB00BFEC
:100AE0004DF808EDFFF7E0FF94BF012000205DF80E
:100AF00008FB00BF4DF808EDFFF7CEFF94BF0120C3
:100B000000205DF808FB00BF4DF808EDFFF7C4FFBB
:100B100034BF012000205DF808FB00BF4FEA410C04
:100B20007FEA6C5C02D150EA013C0AD14FEA430CE7
:100B30007FEA6C5C02D152EA033C02D14FF0000024
:100B400070474FF0010070474FEA410212F5001262
:100B500015D211D56FF47873B3EB625212D94FEA04
:100B6000C12343F0004343EA505311F0004F23FAEE
:100B700002F018BF404270474FF00000704750EA43
:100B8000013005D111F0004008BF6FF00040704700
:100B90004FF00000704700BF4A0011D212F500125A
:100BA00011D20DD56FF47873B3EB62520ED44FEAC5
:100BB000C12343F0004343EA505323FA02F0704745
:100BC0004FF00000704750EA013002D14FF0FF3083
:100BD00070474FF0000070474FEA4102B2F1E04326
:100BE00024BFB3F5001CDCF1FE5C0DD901F0004C14
:100BF0004FEAC0024CEA5070B2F1004F40EB830064
:100C000008BF20F00100704711F0804F21D113F18F
:100C10003872BCBF01F00040704741F480114FEAC8
:100C20005252C2F11802C2F1200C10FA0CF320FA51
:100C300002F018BF40F001004FEAC1234FEAD3236E
:100C400003FA0CFC40EA0C0023FA02F34FEA4303D8
:100C5000CCE77FEA625307D150EA01331EBF4FF061
:100C6000FE4040F44000704701F0004040F0FE407C
:100C700040F40000704700BF53B94AB9002908BFCB
:100C800000281CBF4FF0FF314FF0FF3000F070B96B
:100C9000ADF1080C6DE904CE00F006F8DDF804E0D3
:100CA000DDE9022304B070472DE9F047089E0D46A8
:100CB00004460F46002B4AD18A42944665D9B2FABF
:100CC00082F343B102FA03FCC3F120029F4020FAF1
:100CD00002F217439C404FEA1C4E1FFA8CF5B7FBFB
:100CE000FEF1220C0EFB117742EA074201FB05F0F0
:100CF00090420AD91CEB020201F1FF3780F01C81FF
:100D0000904240F2198102396244121AA4B2B2FB35
:100D1000FEF00EFB102244EA024400FB05F5A5425A
:100D20000AD91CEB040400F1FF3280F00781A542D0
:100D300040F204816444023840EA0140641B00210F
:100D40001EB1DC400023C6E90043BDE8F0878B42BA
:100D500008D9002E00F0ED800021C6E90005084604
:100D6000BDE8F087B3FA83F1002949D1AB4202D341
:100D7000824200F2F880841A65EB030201201746D4
:100D8000002EE2D0C6E90047DFE702B9FFDEB2FA83
:100D900082F3002B40F090808A1A4FEA1C471FFA1A
:100DA0008CFE0121B2FBF7F507FB1520220C42EA6D
:100DB00000420EFB05F0904208D91CEB020205F13F
:100DC000FF3802D2904200F2CB804546121AA4B2FC
:100DD000B2FBF7F007FB102244EA02440EFB00FED0
:100DE000A64508D91CEB040400F1FF3202D2A64547
:100DF00000F2BB801046A4EB0E0440EA05409FE7DA
:100E0000C1F120078B4022FA07FC4CEA030C05FADB
:100E100001F420FA07F3FD404FEA1C492343B5FBD8
:100E2000F9F81FFA8CFE09FB18551C0C44EA05441E
:100E300008FB0EF5A54202FA01F200FA01F00BD907
:100E40001CEB040408F1FF3A80F08880A54240F2D0
:100E50008580A8F102086444641B9DB2B4FBF9F3D9
:100E600009FB134445EA044403FB0EFEA64508D9DA
:100E70001CEB040403F1FF356CD2A6456AD9023B92
:100E8000644443EA0843A3FB0295A4EB0E04AC427E
:100E9000C846AE4656D353D056B1B0EB080264EB09
:100EA0000E0404FA07F7CA40CC401743C6E90074A1
:100EB00018460021BDE8F087C3F1200102FA03FCC7
:100EC00020FA01F225FA01F19D402A434FEA1C471E
:100ED0001FFA8CFEB1FBF7F007FB1015110C41EA6D
:100EE000054100FB0EF58D4204FA03F408D91CEB12
:100EF000010100F1FF382FD28D422DD90238614413
:100F0000491B92B2B1FBF7F507FB151142EA01420A
:100F100005FB0EF1914208D91CEB020205F1FF38E6
:100F200016D2914214D9023D6244521A45EA004158
:100F300038E73146304608E73946E6E61046FBE634
:100F40004845A9D2B9EB020865EB0C0E013BA3E7BB
:100F50004546EAE72B4694E74046D1E7D0467BE793
:100F6000023D624432E708460AE76444023842E739
:100F7000704700BF80B500AF03F0F8F900F0B0F89B
:100F800000F04CFC00F0AEF900F0DAF900F076FA6F
:100F900000F0C8FA00F01AFB00F06CFB00F014FC43
:100FA00000F0FCF800F04CF903F054F905222C494C
:100FB0002C4807F0ACFB08F077FB2B4A00212B48AC
:100FC00008F0BCFB03462A4A13602A4A00212A483B
:100FD00008F0B4FB0346294A1360294A0021294836
:100FE00008F0ACFB0346284A1360284A0021284831
:100FF00008F0A4FB0346274A1360274A002127482C
:1010000008F09CFB0346264A1360264A0021264826
:1010100008F094FB0346254A1360254A0021254821
:1010200008F08CFB0346244A1360244A002124481C
:1010300008F084FB0346234A1360234A0021234817
:1010400008F07CFB0346224A1360224A0021224812
:1010500008F074FB0346214A136008F049FBFEE7E1
:101060004C030020E002002050DB0008152400089B
:101070002403002074DB0008392400082803002022
:1010800098DB0008192C00082C030020BCDB0008AA
:10109000C12D000830030020E0DB0008712F00089C
:1010A0003403002004DC0008992F000838030020D6
:1010B00028DC0008CD2F00083C0300204CDC000891
:1010C000553000084003002070DC0008493100085A
:1010D0004403002094DC000839360008480300204F
:1010E00080B594B000AF07F12003302200211846EC
:1010F0000BF074F807F10C0300221A605A609A6032
:10110000DA601A610023BB60224B1B6C214A43F05A
:10111000805313641F4B1B6C03F08053BB60BB6890
:1011200000237B601C4B1B681B4A43F48043136005
:10113000194B1B6803F480437B607B6802233B628E
:101140000123FB6210233B630023BB6307F12003F1
:10115000184605F0D3F80346002B01D002F026FB19
:101160000F23FB6000233B6100237B610023BB61F5
:101170000023FB6107F10C030021184605F036FB44
:101180000346002B01D002F011FB00BF5037BD46D3
:1011900080BD00BF003802400070004080B584B0C0
:1011A00000AF3B4600221A605A609A60DA60214B19
:1011B000214A1A601F4B00225A601E4B00229A607F
:1011C0001C4B00221A611B4B00221A76194B00227D
:1011D00083F82020174B0022DA62164B174A9A62D6
:1011E000144B0022DA60134B0122DA61114B00220A
:1011F00083F830200F4B01225A610E4803F04CF95E
:101200000346002B01D002F0D1FA0B233B600123EF
:101210007B600023BB603B461946064803F01EFB7B
:101220000346002B01D002F0C1FA00BF1037BD46C3
:1012300080BD00BF94000020002001400100000F8D
:1012400080B584B000AF3B4600221A605A609A60B5
:10125000DA60214B214A1A601F4B00225A601E4B54
:1012600000229A601C4B00221A611B4B00221A7646
:10127000194B002283F82020174B0022DA62164B0C
:10128000174A9A62144B0022DA60134B0122DA618A
:10129000114B002283F830200F4B01225A610E4877
:1012A00003F0FAF80346002B01D002F07FFA0C237A
:1012B0003B6001237B600023BB603B461946064828
:1012C00003F0CCFA0346002B01D002F06FFA00BF06
:1012D0001037BD4680BD00BFDC000020002101406A
:1012E0000100000F80B500AF124B134A1A60114B7A
:1012F000124A5A600F4B00229A600E4B0022DA60AD
:101300000C4B4FF480421A610A4B00225A61094B80
:1013100000229A61074B0022DA61064B00221A6212
:10132000044804F02DF80346002B01D002F03EFAE9
:1013300000BF80BD2401002000540040A0860100B1
:1013400080B596B000AF07F1480300221A605A60DA
:101350009A60DA6007F1400300221A605A6007F1D0
:10136000240300221A605A609A60DA601A615A6196
:101370009A613B1D2022002118460AF02FFF3D4BA9
:101380003D4A1A603B4BA0225A603A4B00229A60B9
:10139000384B4FF47A72DA60364B00221A61354BC3
:1013A00000225A61334B80229A61324805F0FEFBDD
:1013B0000346002B01D002F0F9F94FF48053BB64CF
:1013C00007F1480319462B4806F072FA0346002B32
:1013D00001D002F0EBF9274805F037FC0346002B5B
:1013E00001D002F0E3F900233B6400237B6407F1A2
:1013F000400319461F4806F0C9FF0346002B01D0E1
:1014000002F0D4F960237B620023BB620023FB62FD
:1014100000237B630023BB630023FB6307F12403EA
:101420000C221946134806F081F90346002B01D01F
:1014300002F0BCF900237B600023BB600023FB604B
:1014400000233B6100237B614FF40053BB61002309
:101450003B623B1D1946074807F014F80346002B72
:1014600001D002F0A3F9034802F0F6FB00BF5837A1
:10147000BD4680BD780100200000014080B58CB0E1
:1014800000AF07F10C032422002118460AF0A6FE43
:101490003B1D00221A605A60214B4FF080421A60B7
:1014A0001F4B00225A601E4B00229A601C4B4FF6C5
:1014B000FF72DA601A4B00221A61194B00229A61FE
:1014C0000323FB6000233B6101237B610023BB619D
:1014D0000A23FB6100233B6201237B620023BB6282
:1014E0000A23FB6207F10C0319460D4805F046FE7E
:1014F0000346002B01D002F059F900237B60002342
:10150000BB603B1D1946064806F040FF0346002B12
:1015100001D002F04BF900BF3037BD4680BD00BF9F
:10152000C001002080B58CB000AF07F10C0324226D
:10153000002118460AF052FE3B1D00221A605A6034
:10154000204B214A1A601F4B00225A601D4B00227B
:101550009A601C4B4FF6FF72DA601A4B00221A6138
:10156000184B00229A610323FB6000233B61012397
:101570007B610023BB610A23FB6100233B620123E3
:101580007B620023BB620A23FB6207F10C0319464E
:101590000C4805F0F3FD0346002B01D002F006F9DC
:1015A00000237B600023BB603B1D1946054806F005
:1015B000EDFE0346002B01D002F0F8F800BF3037F3
:1015C000BD4680BD080200200004004080B586B002
:1015D00000AF07F1100300221A605A603B46002258
:1015E0001A605A609A60DA60204B214A1A601F4BD9
:1015F00010225A601D4B00229A601C4B4FF6FF725E
:10160000DA601A4B00221A61184B00229A611748BF
:1016100005F03CFC0346002B01D002F0C7F8002384
:101620003B6100237B6107F1100319460F4806F068
:10163000ADFE0346002B01D002F0B8F800233B605A
:1016400001237B600023BB600023FB603B4600223C
:101650001946064805F0CEFF0346002B01D002F0E4
:10166000A5F800BF1837BD4680BD00BF500200205E
:101670000008004080B596B000AF07F14803002293
:101680001A605A609A60DA6007F1400300221A601B
:101690005A6007F1240300221A605A609A60DA60E7
:1016A0001A615A619A613B1D2022002118460AF0F6
:1016B00095FD434B434A1A60414B00225A60404B10
:1016C00000229A603E4B41F61F42DA603C4B0022FA
:1016D0001A613B4B00225A61394B00229A6138480B
:1016E00005F064FA0346002B01D002F05FF84FF4D6
:1016F0008053BB6407F148031946314806F0D8F817
:101700000346002B01D002F051F82D4805F09DFA58
:101710000346002B01D002F049F800233B6400236C
:101720007B6407F140031946254806F02FFE034667
:10173000002B01D002F03AF860237B620023BB62E9
:101740000023FB6200233B6300237B630023BB6316
:101750000023FB6307F1240300221946184805F013
:10176000E5FF0346002B01D002F020F807F1240327
:1017700004221946124805F0D9FF0346002B01D078
:1017800002F014F800237B600023BB600023FB60A1
:1017900000233B6100237B614FF40053BB610023B6
:1017A0003B623B1D1946064806F06CFE0346002BC3
:1017B00001D001F0FBFF00BF5837BD4680BD00BF20
:1017C000980200200004014080B500AF114B124A7E
:1017D0001A60104B4FF4E1325A600E4B00229A60AF
:1017E0000C4B0022DA600B4B00221A61094B0C22D1
:1017F0005A61084B00229A61064B0022DA610548C3
:1018000006F0A6FE0346002B01D001F0CFFF00BF7B
:1018100080BD00BFE00200200048004080B58CB0D1
:1018200000AF07F11C0300221A605A609A60DA6068
:101830001A610023BB615B4B1B6B5A4A43F01003D8
:101840001363584B1B6B03F01003BB61BB69002390
:101850007B61544B1B6B534A43F080031363514B22
:101860001B6B03F080037B617B6900233B614D4B65
:101870001B6B4C4A43F0040313634A4B1B6B03F08E
:1018800004033B613B690023FB60464B1B6B454AED
:1018900043F001031363434B1B6B03F00103FB6035
:1018A000FB680023BB603F4B1B6B3E4A43F00203C7
:1018B00013633C4B1B6B03F00203BB60BB6800234C
:1018C0007B60384B1B6B374A43F008031363354B7F
:1018D0001B6B03F008037B607B6800224FF4BC6144
:1018E000314803F019FD00223C21304803F014FD7B
:1018F00000224FF480612E4803F00EFD00224FF4C9
:1019000000512C4803F008FD4FF4BC63FB61012338
:101910003B6200237B620023BB6207F11C03194674
:10192000214803F05DFB3C23FB6101233B62002364
:101930007B620223BB6207F11C0319461B4803F0BC
:101940004FFB4FF48063FB6101233B6200237B620A
:101950000023BB6207F11C031946154803F040FB46
:101960004FF48073FB614FF488133B6200237B626A
:1019700007F11C0319460F4803F032FB4FF40053E4
:10198000FB6101233B6200237B620023BB6207F102
:101990001C031946074803F023FB00BF3037BD4640
:1019A00080BD00BF0038024000100240000002402D
:1019B00000040240000C024080B582B000AF7860A5
:1019C00005220449044806F0A2FE00BF0837BD46C0
:1019D00080BD00BF4C030020E002002080B483B033
:1019E00000AF0346FB80094B1B6800225A6200BF10
:1019F000064B1B685A6AFB889A42F9D300BF00BFA6
:101A00000C37BD465DF8047B704700BF50020020D4
:101A100080B582B000AF78607B681B7F012B40F0FF
:101A20008A80494B1B68002B1BD10021786806F087
:101A300007F803461A46454B1A60434B01221A60C9
:101A40007B681B681A6A7B681B6822F00A021A62AC
:101A50007B681B681A6A7B681B6842F002021A6284
:101A600069E0394B1B68012B65D10021786805F0CE
:101A7000E7FF03461A46364B1A607B681B68002254
:101A80005A62334B1A68314B1B689A420ADD304B5D
:101A90001B689AB22D4B1B689BB2D31A9AB22D4B7E
:101AA0001A8011E0294B1A68294B1B689A420BDDFA
:101AB000274B1B689AB2254B1B689BB2D31A9BB26B
:101AC000013B9AB2234B1A80224B1B881846FEF723
:101AD00021FD1BA3D3E90023FEF786FD02460B463A
:101AE000104619464FF000024FF08043FEF7A6FE65
:101AF00002460B4610461946FFF74EF803469AB2C7
:101B0000154B1A80104B00221A607B681B681A6AFA
:101B10007B681B6822F00A021A627B681A687B687D
:101B20001B68126A1A620D4B1B68DA680B4B1B6844
:101B300022F00202DA6000BF0837BD4680BD00BF58
:101B4000006F8104C58FA13FB8030020BC030020B3
:101B5000C0030020C4030020C60300205002002060
:101B600080B500AF01224FF400510B4803F0D4FBC5
:101B70000A20FFF733FF00224FF40051064803F01C
:101B8000CBFB064B1B68DA68044B1B6842F0020271
:101B9000DA6000BF80BD00BF000C02405002002090
:101BA00080B500AF4FF48061064803F0CEFB4FF4E0
:101BB0007A7002F04DFC4FF48061024803F0C5FBDF
:101BC00000BF80BD0004024080B582B000AF87ED49
:101BD000000B134BD2221A80C82007F041FE114B94
:101BE00000221A60104B01221A60104B00221A606A
:101BF0000F4BD3E90001D7E90023FEF73DFB024676
:101C00000B460B49C1E9002300BF00F003FB03466C
:101C1000002BFAD100BF00BF0837BD4680BD00BF12
:101C20000000002068030020580300206403002007
:101C30008803002080B582B000AF87ED000B134B06
:101C4000D2221A80642007F00BFE114B00221A608A
:101C5000104B01221A60104B00221A600F4BD3E97F
:101C60000001D7E90023FEF707FB02460B460B49AC
:101C7000C1E9002300BF00F0CDFA0346002BFAD1E2
:101C800000BF00BF0837BD4680BD00BF0000002078
:101C9000680300205803002064030020880300200C
:101CA00080B582B000AF87ED000B134B69221A801C
:101CB000642007F0D5FD114B00221A60104B012261
:101CC0001A60104B00221A600F4BD3E90001D7E9CC
:101CD0000023FEF7D3FA02460B460B49C1E9002365
:101CE00000BF00F097FA0346002BFAD100BF00BFF7
:101CF0000837BD4680BD00BF0000002068030020FB
:101D000058030020640300208803002080B582B0BF
:101D100000AF87ED000B134B69221A804FF49670C9
:101D200007F09EFD104B00221A60104B01221A6032
:101D30000F4B00221A600F4BD3E90001D7E90023B3
:101D4000FEF79CFA02460B460A49C1E9002300BF90
:101D500000F060FA0346002BFAD100BF00BF08373D
:101D6000BD4680BD0000002068030020580300200D
:101D7000640300208803002080B582B000AF786043
:101D800039603B68002B18D07B68002B0ADD0122EC
:101D90001021354803F0C0FA00222021324803F018
:101DA000BBFA22E0002210212F4803F0B5FA0122ED
:101DB00020212D4803F0B0FA17E07B68002B0ADDE4
:101DC00001220821284803F0A7FA0022042126480E
:101DD00003F0A2FA09E000220821234803F09CFA4C
:101DE00001220421204803F097FA7B68002BB8BF3A
:101DF0005B427B607B68B3F5FA6F02DD4FF47A6378
:101E00002DE07B68B3F5FA7F02DD40F6B83326E0BB
:101E10007B68C82B02DD40F6C41320E07B68642B8E
:101E200002DD40F2DC531AE07B68022B07DD0F4B2A
:101E30001B6801330D4A13604FF42F730FE07B686A
:101E4000002B06DD094B1B680133084A1360002391
:101E500005E0064B1B680133044A13600023184653
:101E60000837BD4680BD00BF00000240640300206B
:101E7000B0B586B000AF87ED020B786001237B61BF
:101E8000684B1B681846FEF745FB02460B46D7E930
:101E90000201FEF71BFE0346002B10D0614B1B68AE
:101EA0005B001846FEF736FBD7E90223FEF7E4F99C
:101EB00002460B46C7E902234FF0FF337B617B6884
:101EC000002B18D07B69002B0ADD01221021564817
:101ED00003F022FA00222021534803F01DFA22E0E9
:101EE00000221021504803F017FA012220214E4809
:101EF00003F012FA17E07B69002B0ADD01220821AA
:101F0000494803F009FA00220421474803F004FA83
:101F100009E000220821444803F0FEF901220421CF
:101F2000414803F0F9F94FF000024FF00003D7E900
:101F30000201FEF7CBFD0346002B05D0BC68FB6811
:101F400083F00045C7E902454FF00002374BD7E95F
:101F50000201FEF7D9FD0346002B02D04FF47A634D
:101F60005BE0304B1B6809331846FEF7D3FA024694
:101F70000B46D7E90201FEF7C7FD0346002B02D04E
:101F800040F6AC5349E0274B1B6805331846FEF773
:101F9000C1FA02460B46D7E90201FEF7B5FD03463A
:101FA000002B02D040F2DC5337E01E4B1B6803339A
:101FB0001846FEF7AFFA02460B46D7E90201FEF7D4
:101FC000A3FD0346002B07D0194B1B680133184AA9
:101FD00013604FF4617320E0124B1B681846FEF744
:101FE00099FA4FF00002134BFEF748F902460B46F0
:101FF000D7E90201FEF774FD0346002B06D00C4B17
:102000001B6801330A4A1360002306E0084B1B6873
:1020100003F5FA73064A1360002318461837BD46C5
:10202000B0BD00BF0400002000000240000044409A
:10203000640300200000E03F80B586B000AF87ED6C
:10204000020B78604FF000024E4BD7E90201FEF719
:10205000CBFA02460B4610461946FEF775FD0346BD
:102060007B617B68002B18D07B69002B0ADD012285
:102070001021454803F050F900222021424803F086
:102080004BF922E0002210213F4803F045F90122DC
:1020900020213D4803F040F917E07B69002B0ADA64
:1020A00001220821384803F037F90022042136487C
:1020B00003F032F909E000220821334803F02CF93B
:1020C00001220421304803F027F97B69002BB8BFB7
:1020D0005B427B617B69B3F57A7F02DD41F270730D
:1020E0004CE07B69B3F52F7F02DD41F27C5345E084
:1020F0007B69B3F5967F02DD4FF461633EE07B6957
:10210000C82B02DD4FF4486338E07B69962B02DD73
:1021100040F6B83332E07B69642B02DD40F62823B9
:102120002CE07B69462B02DD40F2DC5326E07B6924
:10213000322B07DD154B1B680133144A13604FF433
:102140007A731BE07B69182B07DD104B1B6801338A
:102150000E4A13604FF4617310E07B69072B07DDB3
:102160000A4B1B680133094A13604FF4487305E0BA
:10217000064B1B680133054A1360C82318461837FD
:10218000BD4680BD000024400000024064030020E2
:1021900080B500AF144B1B68142B22DD134B0122BA
:1021A0001A60134B00221A80114B1A88114B1A80A7
:1021B000114B1B68114A1360114B1B68114A1360C5
:1021C000094B00221A60104B00221A600F4B0022AC
:1021D0001A600F4B00221A601E2007F041FB0023FB
:1021E00000E00123184680BD64030020680300203E
:1021F00052030020540300207803002080030020B5
:10220000740300207C030020700300206C03002076
:102210005803002080B400AF054B1B68082B01DD7C
:10222000002300E001231846BD465DF8047B70479B
:102230006403002080B500AF124B01221A60124BDC
:1022400000221A80104B1A88104B1A80104B1B6802
:10225000104A1360104B1B68104A1360104B002289
:102260001A60104B00221A600F4B00221A600F4BAD
:1022700000221A600E4B00221A601E2007F0F0FAAE
:1022800000BF80BD680300205203002054030020DB
:102290007803002080030020740300207C030020CA
:1022A00064030020580300205C030020600300202A
:1022B0007003002080B582B000AF78607B689AB26E
:1022C000074B1A801E2007F0CBFA064B00221A603B
:1022D000054B01221A6000BF0837BD4680BD00BF14
:1022E00000000020680300205803002080B584B05F
:1022F00002AF03463960FB710F4AFB7913700F4B35
:102300001B789BB25B0099B20A23009301230A4A0F
:102310000B4803F079F9094B1B789BB25B0099B22B
:102320001423009302233A68054803F06BFA00BFB8
:102330000837BD4680BD00BF980300200200002082
:102340002401002080B584B002AF03460A46FB7129
:102350001346BB710A4AFB791370094ABB79537063
:10236000084B1B789BB25B0099B2142300930223A5
:10237000034A054803F048F900BF0837BD4680BD51
:1023800098030020020000202401002080B500AF47
:1023900000210620FFF7D6FF0A2007F061FA80210E
:1023A0000320FFF7CFFF0A2007F05AFA0721072082
:1023B000FFF7C8FF0A2007F053FA01210620FFF7B4
:1023C000C1FF0A2007F04CFA20217F20FFF7BAFF57
:1023D0000A2007F045FA2F210120FFF7B3FF0A205A
:1023E00007F03EFA00210020FFF7ACFF0A2007F0BB
:1023F00037FA00217F20FFF7A5FF0A2007F030FA07
:1024000000210720FFF79EFF0A2007F029FA00BFEE
:1024100080BD000080B582B000AF78604FF480616D
:10242000034802F092FF4FF4FA6007F019FAF5E75B
:10243000001002400000000090B585B000AF786049
:102440009D4B00221A809D4B00221A800023FB60C6
:1024500000219B4804F052FC0421994804F04EFCF2
:102460000C21984804F04AFC964B1B6895221A648C
:102470004FF4967007F0F4F9934B1A88914B1B6850
:102480001A64924BD3E90001914BD3E90023FDF785
:10249000F3FE02460B468F49C1E900238E4B1B68B1
:1024A000012B40F02981884B1B887E2B36D8894B25
:1024B00093ED007B0120B0EE470AF0EE670AFFF7CC
:1024C000BBFD03469AB27C4B1A807B4B1B88184697
:1024D000FEF720F872A3D3E90023FEF785F8024641
:1024E0000B4610461946FEF757FB03469AB2734B4C
:1024F0001A8001220821794802F00EFF00220421EF
:10250000764802F009FF00222021744802F004FFFF
:1025100001221021714802F0FFFE15E36A4B1B886F
:10252000BD2B36D96B4B93ED007B0020B0EE470AF4
:10253000F0EE670AFFF780FD03469AB25F4B1A8000
:102540005E4B1B881846FDF7E5FF57A3D3E9002330
:10255000FEF74AF802460B4610461946FEF71CFBEA
:1025600003469AB2544B1A80012208215B4802F0BC
:10257000D3FE00220421594802F0CEFE0022202181
:10258000564802F0C9FE01221021544802F0C4FE50
:10259000DAE2534B1B68012B0CD1524B1B68002B0A
:1025A00008D1454B41F294121A80444B41F29412E7
:1025B0001A8018E04A4B1B68012B0CD1494B1B6851
:1025C000012B08D13C4B40F6B8321A803B4B40F609
:1025D000B8321A8007E0384B41F288321A80374B04
:1025E00041F288321A80012208213C4802F094FE10
:1025F00000220421394802F08FFE002220213748B2
:1026000002F08AFE01221021344802F085FE364B8A
:102610001B68012B40F098822E4BD3E900014FF04C
:102620000002324BFEF770FA0346002B03D0264B14
:102630009E221A8088E2274BD3E900014FF0000266
:102640002B4BFEF743FA0346002B03D01E4B8E2282
:102650001A8079E21F4BD3E900014FF00002254BAD
:10266000FDF7C2FF02460B46104619464FF0000226
:102670001E4BFEF7E3F802460B46104619460CA324
:10268000D3E90023FDF7FAFD02460B461046194632
:10269000FEF782FA03469AB20B4B1A8054E200BF4F
:1026A0001F85EB51B81ED53FAE47E17A14AED73F38
:1026B0000000000000C062405203002054030020CC
:1026C00098020020780100200000002088030020EC
:1026D00090030020B00300205803002000000240B7
:1026E0005C030020600300206C0300200000144005
:1026F000000014C000002040B34B1B887E2B7AD80A
:10270000B24B93ED007B0120B0EE470AF0EE670A72
:10271000FFF792FC03461846FDF7FCFEA0A3D3E9A1
:102720000023FDF761FF02460B4610461946FEF7EF
:1027300033FA03469AB2A64B1A80A54B1B8818465B
:10274000FDF7E8FE98A3D3E90023FDF74DFF02460D
:102750000B4610461946FEF71FFA03469AB29D4BE8
:102760001A809A4BD3E900014FF000024FF00003AA
:10277000FEF7CAF90346002B14D00122082196481F
:1027800002F0CAFD00220421934802F0C5FD002298
:102790002021914802F0C0FD012210218E4802F054
:1027A000BBFDD1E18A4B1B881846FDF7B3FE80A321
:1027B000D3E90023FDF718FF02460B4610461946E1
:1027C000FEF7EAF903469AB2824B1A8000220821EA
:1027D000814802F0A1FD012204217F4802F09CFD06
:1027E000012220217C4802F097FD002210217A4826
:1027F00002F092FDA8E1744B1B88BD2B6BD9734B83
:1028000093ED007B0020B0EE470AF0EE670AFFF779
:1028100013FC03469AB26F4B1A806E4B1B88184606
:10282000FDF778FE64A3D3E90023FDF7DDFE024641
:102830000B4610461946FEF7AFF903469AB2644BB1
:102840001A80624BD3E900014FF000024FF0000301
:10285000FEF73CF90346002B14D0012210215E48FC
:1028600002F05AFD002220215B4802F055FD0022B3
:102870000421594802F050FD01220821564802F077
:102880004BFD61E1534B1B881846FDF743FE4CA3FB
:10289000D3E90023FDF7A8FE02460B461046194671
:1028A000FEF77AF903469AB2494B1A8000221021AA
:1028B000494802F031FD01222021474802F02CFD59
:1028C00001220421444802F027FD00220821424849
:1028D00002F022FD38E1414B1B68002B3FD0404BFA
:1028E0001B881846FDF706FE02460B46012043EC06
:1028F000102BFFF7BDFA03469AB2364B1A80394BBC
:102900001B6883EAE372A2EBE372374B1B68002B70
:10291000B8BF5B429A4203DAFB680133FB6002E016
:10292000FB68013BFB602A4B1B88B3F57A7F01D221
:102930000023FB602A4B1B881846FDF7DBFD02468F
:102940000B46002043EC102BFFF792FA03469AB295
:10295000FB689BB213449AB21D4B1A8063E0234B71
:102960001A68214B1B68D31A01211846FFF704FA95
:1029700003469AB2174B1A801A4B1B6883EAE3721C
:10298000A2EBE372184B1B68002BB8BF5B429A4264
:102990002EDAFB680133FB602DE000BFAFF300804F
:1029A0009A9999999999F13F1F85EB51B81ED53F96
:1029B0005C8FC2F5285CDF3FAE47E17A14AED73FAB
:1029C00085EB51B81E85D33F00000020B0030020E6
:1029D0005203002054030020000002407003002036
:1029E000C603002078030020740300207C0300202D
:1029F000FB68013BFB60764B1B88B3F57A7F01D205
:102A00000023FB60734B1A68734B1B68D31A0021B9
:102A10001846FFF7B1F903469AB2FB689BB213441C
:102A20009AB26B4B1A806D4B1B68012B40F08C8067
:102A30006B4B1B881A466B4B1B689A4242DD6A4BF4
:102A4000D3E900014FF00002684BFEF75DF8034642
:102A5000002B03D0664B8E221A8075E0624BD3E9BF
:102A600000014FF00002634BFEF730F80346002BE5
:102A700003D05F4B9E221A8066E05B4BD3E90001D6
:102A80004FF000025C4BFDF7AFFD02460B461046CF
:102A900019464FF00002554BFDF7D0FE02460B469B
:102AA0001046194646A3D3E90023FDF7E7FB02468B
:102AB0000B4610461946FEF76FF803469AB24C4B88
:102AC0001A8041E0484BD3E900014FF00002474B28
:102AD000FEF71AF80346002B03D0454B9E221A80BE
:102AE00032E0414BD3E900014FF00002414BFDF7CA
:102AF000EDFF0346002B03D03D4B8E221A8023E0CE
:102B0000394BD3E900014FF000023C4BFDF76CFD5F
:102B100002460B46104619464FF00002334BFDF7B4
:102B20008DFE02460B461046194625A3D3E9002325
:102B3000FDF7A4FB02460B4610461946FEF72CF89B
:102B400003469AB22A4B1A802D4B1B68002B0ED0DD
:102B50001F4B00221A801E4B1A882A4B1A801E4BCC
:102B60001B681C4A1360284B1B68284A1360254BBE
:102B70001A88274B1B685A63154B1B881846FDF7AC
:102B8000C9FC11A3D3E90023FDF72EFD02460B4635
:102B90001F490C6810461946FDF7FEFF0346A36364
:102BA000012006F05DFE1B4B1B68B3F57A7F7FF7B3
:102BB00063AC184B40F2E9321A605DE4AFF3008079
:102BC0000000000000C06240666666666666F23F0E
:102BD0005203002080030020780300206C030020B3
:102BE000C603002004000020B003002000001440B1
:102BF00000000020000014C0000020C000002040A1
:102C00006803002054030020740300207C0300208C
:102C10009802002064030020B0B59EB002AF786037
:102C20000023BB6507F15C0300221A605A609A60BA
:102C3000DA6000237B6407F1480300221A605A60BF
:102C40009A60DA6000233B6307F1340300221A60C4
:102C50005A609A60DA600023FB6107F120030022CA
:102C60001A605A609A60DA600023BB6007F10C03B7
:102C700000221A605A609A60DA60464B1B881A4636
:102C800007F158034449184609F088FA07F1580338
:102C90001A460A21002001F0ABFA404BD3E9004567
:102CA0003E4BD3E9002310461946FDF74DFF03467E
:102CB0001846FDF72FFC02460B4620462946FDF735
:102CC000DBFA02460B46104619464FF00002344B21
:102CD000FDF78AFC02460B4610461946FDF734FF05
:102CE0000346002BB8BF5B42FB662C4BD3E90023A5
:102CF00010461946FDF728FF024607F14400FB6E17
:102D0000284909F04BFA07F144031A461421002020
:102D100001F06EFA244B1A6807F11C032349184688
:102D200009F03CFA07F11C031A461E21002001F0AD
:102D30005FFA1F4B1A6807F108031E49184609F08D
:102D40002DFA07F108031A462821002001F050FA55
:102D5000194B1B781946184B5B781C46164B9B7811
:102D60001A46154BDB7807F1300001930092234699
:102D70000A46124909F012FA07F130031A463221C5
:102D8000002001F035FA01F0BFF8642006F068FD7C
:102D900073E700BFC6030020ECDA000890030020B0
:102DA00000408F40FCDA0008D40300200CDB000850
:102DB000D803002018DB00084C03002024DB0008A7
:102DC000B0B58AB000AF7860FFF7E0FA00233B812E
:102DD00000237B8100237B624FF000024FF0000351
:102DE000C7E906234FF000024FF00003C7E90423B0
:102DF0000023FB6048E01E2006F032FD07F10803C7
:102E000019463720FFF772FA3B7A1B021AB27B7A17
:102E10001BB213437B81B7F90A301846FDF77AFBE2
:102E200004460D4601F008FB02467B6AD31A184699
:102E3000FDF760FB4AA3D3E90023FDF7FFFC024640
:102E40000B4620462946FDF7CFFB02460B46D7E945
:102E50000401FDF713FA02460B46C7E90423B7F94C
:102E60000A301846FDF756FB02460B46D7E9060125
:102E7000FDF704FA02460B46C7E9062301F0DCFA27
:102E80007862FB680133FB60FB68B3F5967FB2DBC9
:102E9000FEF786FE344B01221A60F868FDF73AFB14
:102EA00002460B46D7E90601FDF7C8FC02460B4671
:102EB000C7E9062301F0C0FA78620A2006F0D0FCC8
:102EC00001F0BAFA02467B6AD31A012BF5D907F151
:102ED000080319463720FFF709FA3B7A1B021AB29A
:102EE0007B7A1BB213437B81B7F90A301846FDF792
:102EF00011FBD7E90623FDF7BFF902460B4614463E
:102F00001D4601F099FA02467B6AD31A1846FDF76E
:102F1000F1FA13A3D3E90023FDF790FC02460B4618
:102F200020462946FDF760FB02460B46104619462F
:102F30000E4BD3E90023FDF7A1F902460B460B49DE
:102F4000C1E90023B7F90A30FA68D31AFB6001F02F
:102F500073FA7862FB680133FB60AEE7AFF3008081
:102F6000000000000004D040C803002090030020AF
:102F700080B582B000AF78600021064803F0D6FF2C
:102F800041F2883006F06CFCFEF7EAFD642006F0A2
:102F900067FCF9E75002002080B485B000AF78608C
:102FA0004123FB730823BB60074B45221A70064B75
:102FB0004D225A70044B50229A70034B5422DA70FF
:102FC000014B59221A71FEE74C03002080B586B0F0
:102FD00000AF78603C211D4804F076F901237B6145
:102FE00001F02AFAF86001F027FA0246FB68D31ACA
:102FF0000A2BF8D9154B1B685B6ABB60BB68B3F53D
:10300000FA4F06DD01237B61BB68C3F580333B616A
:1030100004E04FF0FF337B61BB683B617B69012BB0
:1030200006D10B4B1A683B69D31A094A136005E0B5
:10303000074B1A683B691344054A1360034B1B682E
:1030400000225A6201F0F8F9F860CCE7080200208B
:103050007403002080B586B000AF78603C211D4825
:1030600004F032F901237B6101F0E6F9F86001F028
:10307000E3F90246FB68D31A0A2BF8D9154B1B68F3
:103080005B6ABB60BB68B3F5FA4F06DD01237B6169
:10309000BB68C3F580333B6104E04FF0FF337B61D5
:1030A000BB683B617B69012B06D10B4B1A683B69FE
:1030B0001344094A136005E0074B1A683B69D31AA9
:1030C000054A1360034B1B6800225A6201F0B4F9F1
:1030D000F860CCE7C00100207803002080B582B002
:1030E00000AF7860114A7B681360114B95221A80FB
:1030F000642006F0B5FB0F4B01221A600E4B002234
:103100001A600E4B01221A600D4B00221A600D4B03
:1031100000221A6000BFFFF73BF80346002BFAD1EC
:1031200000BF00BF0837BD4680BD00BF04000020BF
:103130000000002070030020580300206C030020D2
:10314000680300206403002080B584B000AF78607D
:103150000023FB60FB68002B40F0378202E0322046
:1031600006F07EFBA64B1B68012BF8D102E0052080
:1031700006F076FBA34B5B78532BF8D1A24B0022D1
:103180001A60642006F06CFB1C20FFF7A7FF4FF6C7
:10319000FF7301229D499E4805F027FA9D4B5A2254
:1031A0001A700BE0974B9B784C2B03D0954B9B7878
:1031B000522B03D1934B9A78964B1A70954B1B78F0
:1031C0005A2BEFD0934B1B784C2B23D19FED7A0BCE
:1031D000FEF79CFD9FED7A0BFEF7F6FCFFF72AF851
:1031E000884B1B78492B0AD12320FFF777FF4FF636
:1031F000FF7301228549864805F0F7F931E0232065
:10320000FFF76CFF4FF6FF7301228049804805F0FD
:10321000ECF926E07F4B1B78522B22D19FED660BF9
:10322000FEF7D2FC9FED660BFEF770FDFFF702F88C
:10323000744B1B78492B0AD12320FFF74FFF4FF621
:10324000FF7301227149724805F0CFF909E023208C
:10325000FFF744FF4FF6FF7301226C496C4805F0FD
:10326000C4F96C4B5A221A700BE0664BDB784C2B7E
:1032700003D0644BDB78522B03D1624BDA78654B79
:103280001A70644B1B785A2BEFD0624B1B784C2B77
:1032900040F0E7805B4B9B784C2B04D19FED4A0BB1
:1032A000FEF734FD0CE0574B9B78522B04D19FED79
:1032B000480BFEF72BFD03E09FED470BFEF726FDC5
:1032C000C82006F0CDFA08E0534B01221A60534B98
:1032D00001221A609520FEF7EDFF514B1B681D2B54
:1032E000F2DDFEF7A7FF322006F0BAFA454B9B78D5
:1032F0004C2B04D19FED3A0BFEF79CFC0EE0414BAA
:103300009B78522B0AD19FED380BFEF793FC05E01A
:10331000414B01221A609520FEF7CCFF404B1B6801
:103320001E2BF5DCFEF786FF322006F099FA05E049
:10333000394B01221A609520FEF7BCFF384B1B6801
:103340001D2BF5DDFEF776FF9FED230BFEF73CFC12
:103350009FED270BFEF76EFC9FED170BFEF7A0FC11
:10336000FEF768FF1E2006F07BFA08E02A4B0122D8
:103370001A602A4B01221A609E20FEF79BFF284B01
:103380001B681E2BF2DCFEF755FF254B1B68132B29
:1033900048DC9520FEF78EFF642006F061FA9FED71
:1033A000160BFEF747FC9FED140BFEF779FC14207B
:1033B000FFF794FE4BE000BF000000000000494012
:1033C0000000000000804B40000000000040504022
:1033D0000000000000405540000000000080564002
:1033E00000000000002062400000000000E0654096
:1033F0000000000000004D4000000000008046403A
:10340000C80300204C0300206403002034DB0008C4
:10341000E0020020030000205C0300206003002085
:10342000D80300207E4B1B681D2B10DC9520FEF777
:1034300041FF642006F014FA9FED670BFEF7FAFBDC
:103440009FED650BFEF72CFC1420FFF747FE754B34
:1034500045221A70734B4D225A70724B50229A704B
:10346000B0E0714B1B78522B40F0AC806D4B9B78D9
:103470004C2B04D19FED5A0BFEF7A6FB0CE0694BD9
:103480009B78522B04D19FED580BFEF79DFB03E078
:103490009FED570BFEF798FBC82006F0E1F908E016
:1034A000624B01221A60624B01221A609520FEF7DE
:1034B00001FF604B1B681D2BF2DDFEF7BBFE594B75
:1034C0009B78522B04D19FED4C0BFEF7E9FB0EE0ED
:1034D000544B9B784C2B0AD19FED490BFEF7E0FB38
:1034E00005E0524B01221A609520FEF7E3FE514B96
:1034F0001B681E2BF5DCFEF79DFE322006F0B0F9AE
:1035000005E04A4B01221A609520FEF7D3FE494B95
:103510001B681D2BF5DDFEF78DFE9FED350BFEF7CD
:10352000F5FB9FED390BFEF7BBFB9FED390BFEF76B
:1035300081FBFEF77FFE1E2006F092F908E03B4B70
:1035400001221A603A4B01221A609220FEF7B2FE65
:10355000384B1B681E2BF2DCFEF76CFE354B1B68EC
:10356000132B11DC9520FEF7A5FE642006F078F9F8
:103570009FED290BFEF794FB9FED270BFEF75AFBFF
:103580001420FFF7ABFD14E02A4B1B681D2B10DC49
:103590009520FEF78FFE642006F062F99FED0E0B7A
:1035A000FEF77EFB9FED0C0BFEF744FB1420FFF7AC
:1035B00095FD1C4B45221A701A4B4D225A70194B1F
:1035C00050229A700123FB60C4E500BF00BF103792
:1035D000BD4680BDAFF300800000000000004E40FB
:1035E0000000000000405540000000000040504036
:1035F00000000000008056400000000000206240F3
:103600000000000000E065400000000000804C4029
:10361000000000000000494000000000008046401B
:10362000D80300204C030020030000205C0300208E
:1036300060030020D403002080B584B000AF786020
:103640000023FB6000F0F8FE0246FB68D31A012B52
:10365000F8D94D4800F064FF0A214B4801F065F8A5
:10366000494801F0EDF80346484A1360464801F026
:1036700029F8474800F054FF0A21454801F055F861
:10368000434801F0DDF80346424A1360404801F028
:1036900019F83E4B1A6813469B00134407EE903A04
:1036A000B8EE677ADFED3C6AC7EE267A3B4BC3ED96
:1036B000007A3A4B1B681846FCF73EFF02460B4661
:1036C0009FED2D1B43EC102B09F062FA51EC100B0F
:1036D0002BA3D3E90023FCF787FF02460B461046D5
:1036E0001946FDF779FA034600EE103A09F0CCFAD4
:1036F000F0EE407AFDEEE77A17EE902A284B1A603A
:10370000244B1A6813469B00134407EE903AB8EE18
:10371000677ADFED216AC7EE267A224BC3ED007A85
:10372000204B1B681846FCF707FF02460B469FED2F
:10373000121B43EC102B09F02BFA51EC100B10A3C9
:10374000D3E90023FCF750FF02460B46104619460A
:10375000FDF742FA034600EE103A09F095FAF0EE52
:10376000407AFDEEE77A17EE902A0F4B1A6000F0D0
:1037700063FEF86066E700BFF853E3A59BC4F2BFA1
:10378000B0726891EDFC3D4094000020DC03002005
:10379000DC000020E003002000F07F45CC03002087
:1037A000D4030020D0030020D803002080B400AF51
:1037B00072B600BFFEE7000080B582B000AF002304
:1037C0007B60164B5B6C154A43F480435364134B88
:1037D0005B6C03F480437B607B6800233B600F4B92
:1037E0001B6C0E4A43F0805313640C4B1B6C03F0AC
:1037F00080533B603B6800220F216FF0010001F015
:1038000026FB00220521052001F021FB052001F007
:103810003AFB00BF0837BD4680BD00BF00380240FC
:1038200080B58CB000AF786007F11C0300221A60ED
:103830005A609A60DA601A617B681B682E4A93426C
:1038400028D10023BB612D4B5B6C2C4A43F4807361
:1038500053642A4B5B6C03F48073BB61BB69002328
:103860007B61264B1B6B254A43F004031363234BF8
:103870001B6B03F004037B617B690223FB61032361
:103880003B6200237B6207F11C0319461C4801F0D0
:10389000A7FB2CE07B681B681A4A934227D10023C0
:1038A0003B61164B5B6C154A43F400735364134B36
:1038B0005B6C03F400733B613B690023FB600F4BBF
:1038C0001B6B0E4A43F0040313630C4B1B6B03F09A
:1038D0000403FB60FB680423FB6103233B620023BA
:1038E0007B6207F11C031946054801F079FB00BF14
:1038F0003037BD4680BD00BF002001400038024087
:10390000000802400021014080B58AB000AF786015
:1039100007F1140300221A605A609A60DA601A6193
:103920007B681B68194A93422CD100233B61184BDA
:103930001B6B174A43F002031363154B1B6B03F019
:1039400002033B613B694FF440737B611223BB610F
:103950000023FB6103233B6204237B6207F1140312
:1039600019460C4801F03CFB0023FB60084B1B6C24
:10397000074A43F400131364054B1B6C03F4001354
:10398000FB60FB6800BF2837BD4680BD0054004087
:10399000003802400004024080B58AB000AF786071
:1039A00007F1140300221A605A609A60DA601A6103
:1039B0007B681B682F4A93421ED100233B612E4B2C
:1039C0005B6C2D4A43F0010353642B4B5B6C03F09B
:1039D00001033B613B6900220521182001F037FA01
:1039E000182001F050FA00220521192001F02FFAC9
:1039F000192001F048FA38E07B681B681F4A93429F
:103A000033D10023FB601C4B5B6C1B4A43F0020369
:103A10005364194B5B6C03F00203FB60FB680023EB
:103A2000BB60154B1B6B144A43F004031363124B2A
:103A30001B6B03F00403BB60BB68C0237B610223E4
:103A4000BB610023FB6100233B6203237B6207F120
:103A5000140319460A4801F0C3FA002205212D205B
:103A600001F0F5F92D2001F00EFA00BF2837BD4610
:103A700080BD00BF0000014000380240000401404A
:103A80000008024080B58CB000AF786007F11C03DD
:103A900000221A605A609A60DA601A617B681B68BB
:103AA000B3F1804F4BD10023BB613F4B1B6C3E4AAF
:103AB00043F0010313643C4B1B6C03F00103BB6137
:103AC000BB6900237B61384B1B6B374A43F0010312
:103AD0001363354B1B6B03F001037B617B69002390
:103AE0003B61314B1B6B304A43F0020313632E4B97
:103AF0001B6B03F002033B613B694FF40043FB6126
:103B000002233B6200237B620023BB620123FB6232
:103B100007F11C031946254801F062FA0823FB61EE
:103B200002233B6200237B620023BB620123FB6212
:103B300007F11C0319461E4801F052FA30E07B6879
:103B40001B681C4A93422BD10023FB60164B1B6C55
:103B5000154A43F002031364134B1B6C03F002037A
:103B6000FB60FB680023BB600F4B1B6B0E4A43F0EE
:103B7000010313630C4B1B6B03F00103BB60BB68B9
:103B8000C023FB6102233B6200237B620023BB62F4
:103B90000223FB6207F11C031946044801F020FAD6
:103BA00000BF3037BD4680BD0038024000000240F3
:103BB000000402400004004080B58AB000AF786085
:103BC00007F1140300221A605A609A60DA601A61E1
:103BD0007B681B681D4A934234D100233B611C4B18
:103BE0001B6C1B4A43F004031364194B1B6C03F05A
:103BF00004033B613B690023FB60154B1B6B144ABC
:103C000043F008031363124B1B6B03F00803FB60C4
:103C1000FB684FF480537B610223BB610023FB618F
:103C200000233B6202237B6207F114031946094813
:103C300001F0D6F9002205211E2001F008F91E200E
:103C400001F021F900BF2837BD4680BD00080040C3
:103C500000380240000C024080B588B000AF7860A8
:103C600007F10C0300221A605A609A60DA601A6148
:103C70007B681B68124A93421ED10023BB60114B24
:103C80001B6B104A43F0100313630E4B1B6B03F0C6
:103C90001003BB60BB684FF48043FB6002233B61B1
:103CA00000237B610023BB610123FB6107F10C034F
:103CB0001946054801F094F900BF2037BD4680BD84
:103CC00000000140003802400010024080B58AB078
:103CD00000AF786007F1140300221A605A609A60FE
:103CE000DA601A617B681B681D4A934234D1002355
:103CF0003B611C4B1B6C1B4A43F480231364194B20
:103D00001B6C03F480233B613B690023FB60154B74
:103D10001B6B144A43F004031363124B1B6B03F039
:103D20000403FB60FB684FF440637B610223BB61CB
:103D30000023FB6103233B6207237B6207F114032B
:103D40001946094801F04CF900220521272001F00D
:103D50007EF8272001F097F800BF2837BD4680BDC8
:103D600000480040003802400008024080B400AF24
:103D7000FEE780B400AFFEE780B400AFFEE780B49A
:103D800000AFFEE780B400AFFEE780B400AF00BF35
:103D9000BD465DF8047B704780B500AF00F038FB8E
:103DA00007F096F90346012B01D007F07DFF00BF15
:103DB00080BD80B400AF00BFBD465DF8047B704796
:103DC00080B500AF024803F00DFB00BF80BD00BF0F
:103DD0007801002080B500AF024803F003FB00BF6C
:103DE00080BD00BF7801002080B500AF024803F01D
:103DF000F9FA00BF80BD00BF5002002080B500AFBF
:103E0000024804F0B5FC00BF80BD00BFE002002006
:103E100080B500AF024803F0E5FA00BF80BD00BFE7
:103E20009802002080B586B000AF7860144A154B28
:103E3000D31A7B617B693B61134B1B68002B02D15A
:103E4000114B124A1A60104B1A687B6813443A6986
:103E50009A4207D208F020FA03460C221A604FF06B
:103E6000FF3309E0084B1B68FB60074B1A687B684F
:103E70001344054A1360FB6818461837BD4680BDD9
:103E80000000022000040000E40300202053002072
:103E900080B400AF064BD3F88830054A43F4700372
:103EA000C2F8883000BFBD465DF8047B704700BF94
:103EB00000ED00E0DFF834D00D480E490E4A002333
:103EC00002E0D458C4500433C4188C42F9D30B4ACE
:103ED0000B4C002301E013600432A242FBD3FFF736
:103EE000D7FF08F0DFF9FDF745F870470000022022
:103EF0000000002078000020A8E7000878000020DB
:103F00001C530020FEE7000080B582B000AF002304
:103F1000FB7126E0FB79503BDBB20021184600F034
:103F20002BF80021002000F027F80021102000F0DD
:103F300023F80023BB710DE0BA79FB790D49D2005B
:103F40000A4413441B780121184600F015F8BB7988
:103F50000133BB7197F90630002BEDDAFB790133A1
:103F6000FB71FB79072BD5D900BF00BF0837BD46D1
:103F700080BD00BFE803002080B584B000AF0346D9
:103F80000A46FB711346BB71BB79002B06D0012298
:103F90004FF480711C4801F0BFF905E000224FF496
:103FA0008071194801F0B8F90023FB731EE000226C
:103FB0002021154801F0B0F997F90730002B05DAF8
:103FC00001224021104801F0A7F904E0002240211D
:103FD0000D4801F0A1F9012220210B4801F09CF9C4
:103FE000FB795B00FB71FB7B0133FB73FB7B072BD6
:103FF000DDD901224FF48071034801F08DF900BF33
:104000001037BD4680BD00BF0010024080B582B0B1
:1040100000AF0023FB7114E00023BB710AE0BA7902
:10402000FB790C49D2000A44134400221A70BB7970
:104030000133BB7197F90630002BF0DAFB790133BD
:10404000FB71FB79072BE7D9FFF75EFF00BF08374D
:10405000BD4680BDE803002080B485B000AF0346B4
:10406000FB710B46BB7113467B710023FB7397F901
:104070000730002B41DBBB793F2B3ED8BB79DB08F7
:10408000DBB2C3F10703BB73BB7903F007037B7398
:104090007B7BC3F10703012202FA03F3FB737B79F5
:1040A000002B12D0FA79BB7B1749D2000A44134483
:1040B0001878FA79BB7BF97B0143C8B21249D20068
:1040C0000A44134402461A7018E0FA79BB7B0E4981
:1040D000D2000A4413441B785AB297F90F30DB43DD
:1040E0005BB2134059B2FA79BB7BC8B20649D20021
:1040F0000A44134402461A7000E000BF1437BD465C
:104100005DF8047B704700BFE803002090B585B0E0
:1041100000AF0446084611461A462346FB71034683
:10412000BB710B467B7113463B71BB793B737B794B
:10413000203B7B710023BB734DE03B790C2B0BD1F3
:104140007A79B97B284813465B0013449B000344EB
:104150000B441B78FB7307E07A79BB7B2349120180
:104160000A4413441B78FB7300237B732DE097F9FB
:104170000F30002B07DA97F82020B979FB79184621
:10418000FFF76AFF0CE097F82030002B0CBF0123EB
:104190000023DBB21A46B979FB791846FFF75CFFBA
:1041A000FB7B5B00FB73BB790133BB71BA793B7B53
:1041B000D21A3B799A4205D13B7BBB71FB79013323
:1041C000FB7105E07B7B01337B737B7B072BCED9B7
:1041D000BB7B0133BB73BA7B3B799A42ADD300BF43
:1041E00000BF1437BD4690BDD0DC000844E1000894
:1041F00080B584B002AF03463A60FB710B46BB71D9
:104200001FE0FB797A2B04D90023FB71BB791033B3
:10421000BB71BB793A2B05D90023FB71FB79BB71CC
:10422000FFF7F4FE3B681A78B979F8790123009317
:104230000C23FFF76BFFFB790833FB713B680133FD
:104240003B603B681B78002BDBD100BF00BF083709
:10425000BD4680BD80B500AF02F028F8414B1B6F12
:10426000404A23F0010313673E4B1B6F3D4A23F086
:104270000403136702F02EF8002280213A4801F06F
:104280004BF8642000F0E4F801228021364801F068
:1042900043F80021AE20FFF76FFE0021D520FFF785
:1042A0006BFE00215020FFF767FE0021A820FFF7DA
:1042B00063FE00213F20FFF75FFE0021D320FFF7C0
:1042C0005BFE00210020FFF757FE00214020FFF792
:1042D00053FE00218D20FFF74FFE00211420FFF731
:1042E0004BFE00212020FFF747FE00210220FFF7B0
:1042F00043FE0021A120FFF73FFE0021C020FFF771
:104300003BFE0021DA20FFF737FE00211220FFF7E5
:1043100033FE00218120FFF72FFE0021EF20FFF761
:104320002BFE0021D920FFF727FE0021F120FFF707
:1043300023FE0021DB20FFF71FFE00213020FFF7C6
:104340001BFE0021A420FFF717FE0021A620FFF787
:1043500013FE0021AF20FFF70FFEFFF757FE00BF4F
:1043600080BD00BF003802400010024080B500AFA1
:104370000E4B1B680D4A43F4007313600B4B1B6814
:104380000A4A43F480631360084B1B68074A43F4EE
:1043900080731360032000F04FFD0F2000F008F839
:1043A000FFF70AFA0023184680BD00BF003C024018
:1043B00080B582B000AF7860124B1A68124B1B7840
:1043C00019464FF47A73B3FBF1F3B2FBF3F31846DB
:1043D00000F067FD0346002B01D001230EE07B684F
:1043E0000F2B0AD8002279684FF0FF3000F02FFD24
:1043F000064A7B681360002300E001231846083753
:10440000BD4680BD08000020100000200C000020E8
:1044100080B400AF064B1B781A46064B1B6813444A
:10442000044A136000BFBD465DF8047B704700BFBF
:1044300010000020E807002080B400AF034B1B6889
:104440001846BD465DF8047B704700BFE8070020B2
:1044500080B584B000AF7860FFF7EEFFB8607B688E
:10446000FB60FB68B3F1FF3F05D00A4B1B781A468F
:10447000FB681344FB6000BFFFF7DEFF0246BB682A
:10448000D31AFA689A42F7D800BF00BF1037BD466A
:1044900080BD00BF1000002080B584B000AF786000
:1044A0000023FB737B68002B01D1012333E07B6881
:1044B0001B6C002B09D17868FFF7B2F97B680022EA
:1044C0005A647B68002283F83C207B681B6C03F0F5
:1044D0001003002B18D17B681B6C23F4885323F046
:1044E000020343F002027B681A64786800F0D8FA8D
:1044F0007B6800225A647B681B6C23F0030343F043
:1045000001027B681A6401E00123FB737B680022CF
:1045100083F83C20FB7B18461037BD4680BD000069
:1045200080B485B000AF78600023BB607B6893F8EF
:104530003C30012B01D10223B2E07B68012283F8D9
:104540003C207B681B689B6803F00103012B18D09B
:104550007B681B689A687B681B6842F001029A605E
:10456000524B1B68524AA2FB03239A0C13465B0072
:104570001344BB6002E0BB68013BBB60BB68002B1F
:10458000F9D17B681B689B6803F00103012B7AD18A
:104590007B681B6C23F4E06323F0010343F4807217
:1045A0007B681A647B681B685B6803F48063002B7C
:1045B00007D07B681B6C23F4405343F480527B6824
:1045C0001A647B681B6C03F48053B3F5805F06D1DB
:1045D0007B685B6C23F006027B685A6402E07B68B0
:1045E00000225A647B68002283F83C20314BFB6038
:1045F0007B681B686FF022021A60FB685B6803F03F
:104600001F03002B2AD17B681B682B4A934215D0CD
:104610007B681B68294A934205D1264B5B6803F0EF
:104620001F03002B0AD07B681B68254A934236D1B2
:10463000204B5B6803F01003002B30D17B681B68B4
:104640009B6803F04053002B29D17B681B689A6854
:104650007B681B6842F080429A6020E07B681B68A0
:10466000154A93421BD17B681B689B6803F040533B
:10467000002B14D17B681B689A687B681B6842F02A
:1046800080429A600BE07B681B6C43F010027B68F1
:104690001A647B685B6C43F001027B685A640023F8
:1046A00018461437BD465DF8047B704708000020AB
:1046B00083DE1B4300230140002001400021014014
:1046C0000022014080B483B000AF78607B6893F82B
:1046D0003C30012B01D1022321E07B68012283F8C9
:1046E0003C207B681B689A687B681B6822F001028B
:1046F0009A607B681B689B6803F00103002B09D15B
:104700007B681B6C23F4885323F0010343F0010200
:104710007B681A647B68002283F83C2000231846DB
:104720000C37BD465DF8047B704780B584B000AFA0
:10473000786039600023FB607B681B689B6803F42A
:104740008063B3F5806F13D17B681B689B6803F4AB
:104750008073B3F5807F0BD17B681B6C43F0200224
:104760007B681A647B68002283F83C20012363E0A5
:10477000FFF762FEF86021E03B68B3F1FF3F1DD018
:104780003B68002B07D0FFF757FE0246FB68D31AA1
:104790003A689A4212D27B681B681B6803F00203D6
:1047A000022B0BD07B681B6C43F004027B681A64FD
:1047B0007B68002283F83C2003233DE07B681B6874
:1047C0001B6803F00203022BD6D17B681B686FF0D5
:1047D00012021A607B681B6C43F400727B681A64D7
:1047E0007B681B689B6803F04053002B23D17B68D8
:1047F0001B7E002B1FD17B681B68DB6A03F47003F0
:10480000002B06D07B681B689B6803F48063002B39
:1048100011D17B681B6C23F480727B681A647B68FF
:104820001B6C03F48053002B05D17B681B6C43F099
:1048300001027B681A64002318461037BD4680BD0C
:1048400080B483B000AF78607B681B68DB6C18466F
:104850000C37BD465DF8047B7047000080B485B01E
:1048600000AF786039600023BB607B6893F83C3010
:10487000012B01D1022305E17B68012283F83C2052
:104880003B681B68092B25D97B681B68D9683B6886
:104890001B689BB21A4613465B0013441E3B07225B
:1048A00002FA03F3DA437B681B680A40DA607B682C
:1048B0001B68D9683B689A683B681B689BB21846BE
:1048C00003465B0003441E3B9A407B681B680A4317
:1048D000DA6022E07B681B6819693B681B689BB241
:1048E0001A4613465B001344072202FA03F3DA4325
:1048F0007B681B680A401A617B681B6819693B6802
:104900009A683B681B689BB2184603465B000344E9
:104910009A407B681B680A431A613B685B68062BF8
:1049200024D87B681B68596B3B685A6813469B0008
:104930001344053B1F2202FA03F3DA437B681B682A
:104940000A405A637B681B68596B3B681B689BB2C3
:1049500018463B685A6813469B001344053B00FA0F
:1049600003F27B681B680A435A634CE03B685B6850
:104970000C2B24D87B681B68196B3B685A6813465C
:104980009B001344233B1F2202FA03F3DA437B68A4
:104990001B680A401A637B681B68196B3B681B68BD
:1049A0009BB218463B685A6813469B001344233B4E
:1049B00000FA03F27B681B680A431A6323E07B68F2
:1049C0001B68D96A3B685A6813469B001344413BF5
:1049D0001F2202FA03F3DA437B681B680A40DA629B
:1049E0007B681B68D96A3B681B689BB218463B68AA
:1049F0005A6813469B001344413B00FA03F27B685C
:104A00001B680A43DA62224BFB607B681B68214A01
:104A1000934209D13B681B68122B05D1FB685B6888
:104A200043F48002FB685A607B681B68194A934212
:104A300023D13B681B68102B03D03B681B68112BEC
:104A40001BD1FB685B6843F40002FB685A603B685B
:104A50001B68102B11D1104B1B68104AA2FB0323BB
:104A60009A0C13469B0013445B00BB6002E0BB68DA
:104A7000013BBB60BB68002BF9D17B68002283F847
:104A80003C20002318461437BD465DF8047B704770
:104A900000230140002001400800002083DE1B436A
:104AA00080B485B000AF7860794BFB60FB685B68D1
:104AB00023F44032FB685A60FB685A687B685B6885
:104AC0001A43FB685A607B681B685A687B681B68DE
:104AD00022F480725A607B681B6859687B681B6986
:104AE0001A027B681B680A435A607B681B685A6815
:104AF0007B681B6822F040725A607B681B685968AB
:104B00007B689A687B681B680A435A607B681B68ED
:104B10009A687B681B6822F400629A607B681B6855
:104B200099687B68DA687B681B680A439A607B68CF
:104B30009B6A584A934222D07B681B689A687B68BC
:104B40001B6822F070629A607B681B6899687B68BA
:104B50009A6A7B681B680A439A607B681B689A683C
:104B60007B681B6822F040529A607B681B689968DA
:104B70007B68DA6A7B681B680A439A600FE07B688F
:104B80001B689A687B681B6822F070629A607B6879
:104B90001B689A687B681B6822F040529A607B68A9
:104BA0001B689A687B681B6822F002029A607B6827
:104BB0001B6899687B681B7E5A007B681B680A43E8
:104BC0009A607B6893F82030002B1BD07B681B68B1
:104BD0005A687B681B6842F400625A607B681B68F5
:104BE0005A687B681B6822F460425A607B681B68C5
:104BF00059687B685B6A013B5A037B681B680A4300
:104C00005A6007E07B681B685A687B681B6822F45F
:104C100000625A607B681B68DA6A7B681B6822F452
:104C20007002DA627B681B68D96A7B68DB69013BCA
:104C30001A057B681B680A43DA627B681B689A68FE
:104C40007B681B6822F400729A607B681B68996815
:104C50007B6893F830305A027B681B680A439A607D
:104C60007B681B689A687B681B6822F480629A6084
:104C70007B681B6899687B685B699A027B681B6824
:104C80000A439A6000BF1437BD465DF8047B704745
:104C9000002301400100000F80B485B000AF7860B0
:104CA0007B6803F00703FB600C4BDB68BB60BA68F2
:104CB0004FF6FF031340BB60FB681A02BB68134347
:104CC00043F0BF6343F40033BB60044ABB68D36066
:104CD00000BF1437BD465DF8047B704700ED00E06F
:104CE00080B400AF044BDB681B0A03F007031846CF
:104CF000BD465DF8047B704700ED00E080B483B0F2
:104D000000AF0346FB7197F90730002B0BDBFB79F3
:104D100003F01F02074997F907305B09012000FAE9
:104D200002F241F8232000BF0C37BD465DF8047B3A
:104D3000704700BF00E100E080B483B000AF0346DD
:104D40003960FB7197F90730002B0ADB3B68DAB258
:104D50000C4997F907301201D2B20B4483F80023B3
:104D60000AE03B68DAB20849FB7903F00F03043B21
:104D70001201D2B20B441A7600BF0C37BD465DF863
:104D8000047B704700E100E000ED00E080B489B0F2
:104D900000AFF860B9607A60FB6803F00703FB615D
:104DA000FB69C3F10703042B28BF0423BB61FB6924
:104DB0000433062B02D9FB69033B00E000237B612F
:104DC0004FF0FF32BB6902FA03F3DA43BB681A40C3
:104DD0007B699A404FF0FF317B6901FA03F3D943B5
:104DE0007B680B40134318462437BD465DF8047BAF
:104DF0007047000080B582B000AF78607B68013BEF
:104E0000B3F1807F01D301230FE00A4A7B68013BA5
:104E100053600F214FF0FF30FFF78EFF054B00224C
:104E20009A60044B07221A60002318460837BD46D3
:104E300080BD00BF10E000E080B582B000AF7860B8
:104E40007868FFF729FF00BF0837BD4680BD80B5F1
:104E500086B000AF0346B9607A60FB7300237B61C4
:104E6000FFF73EFF78617A68B9687869FFF78EFFCF
:104E7000024697F90F3011461846FFF75DFF00BF55
:104E80001837BD4680BD80B582B000AF0346FB71C8
:104E900097F907301846FFF731FF00BF0837BD46C6
:104EA00080BD80B582B000AF78607868FFF7A2FF60
:104EB000034618460837BD4680BD80B584B000AFB4
:104EC00078607B689B6DFB60FFF7B6FAB8607B6823
:104ED00093F83530DBB2022B08D07B6880225A650C
:104EE0007B68002283F83420012352E07B681B6832
:104EF0001A687B681B6822F016021A607B681B68C0
:104F00005A697B681B6822F080025A617B681B6CBF
:104F1000002B03D17B689B6C002B07D07B681B6840
:104F20001A687B681B6822F008021A607B681B689D
:104F30001A687B681B6822F001021A6013E0FFF711
:104F40007BFA0246BB68D31A052B0CD97B6820225A
:104F50005A657B68032283F835207B68002283F83A
:104F60003420032315E07B681B681B6803F00103F2
:104F7000002BE4D17B68DB6D3F229A40FB689A608E
:104F80007B68012283F835207B68002283F8342077
:104F9000002318461037BD4680BD80B483B000AFF3
:104FA00078607B6893F83530DBB2022B04D07B68E5
:104FB00080225A6501230CE07B68052283F83520A6
:104FC0007B681B681A687B681B6822F001021A6004
:104FD000002318460C37BD465DF8047B704700007F
:104FE00080B489B000AF7860396000237B61002312
:104FF0003B610023BB610023FB616BE10122FB6984
:1050000002FA03F37B613B681B687A6913403B61DA
:105010003A697B699A4240F05A813B685B6803F0C9
:105020000303012B05D03B685B6803F00303022BED
:1050300030D17B689B68BB61FB695B00032202FA8D
:1050400003F3DB43BA691340BB613B68DA68FB6971
:105050005B0002FA03F3BA691343BB617B68BA6968
:105060009A607B685B68BB610122FB6902FA03F30B
:10507000DB43BA691340BB613B685B681B0903F003
:105080000102FB6902FA03F3BA691343BB617B684F
:10509000BA695A603B685B6803F00303032B17D0BF
:1050A0007B68DB68BB61FB695B00032202FA03F3E8
:1050B000DB43BA691340BB613B689A68FB695B00DC
:1050C00002FA03F3BA691343BB617B68BA69DA6019
:1050D0003B685B6803F00303022B23D1FB69DA080A
:1050E0007B68083253F82230BB61FB6903F0070389
:1050F0009B000F2202FA03F3DB43BA691340BB6142
:105100003B681A69FB6903F007039B0002FA03F38B
:10511000BA691343BB61FB69DA087B680832B96975
:1051200043F822107B681B68BB61FB695B000322AC
:1051300002FA03F3DB43BA691340BB613B685B6867
:1051400003F00302FB695B0002FA03F3BA6913433D
:10515000BB617B68BA691A603B685B6803F44033E3
:10516000002B00F0B4800023FB60604B5B6C5F4A57
:1051700043F4804353645D4B5B6C03F48043FB60FA
:10518000FB685B4AFB699B08023352F82330BB6122
:10519000FB6903F003039B000F2202FA03F3DB43D6
:1051A000BA691340BB617B68524A93422BD07B683B
:1051B000514A934225D07B68504A93421FD07B6866
:1051C0004F4A934219D07B684E4A934213D07B6872
:1051D0004D4A93420DD07B684C4A934207D07B687E
:1051E0004B4A934201D107230EE008230CE006232B
:1051F0000AE0052308E0042306E0032304E0022379
:1052000002E0012300E00023FA6902F003029200A9
:105210009340BA691343BB613549FB699B0802336C
:10522000BA6941F823203B4B9B68BB613B69DB4378
:10523000BA691340BB613B685B6803F48013002BC1
:1052400003D0BA693B691343BB61324ABB699360BF
:10525000304BDB68BB613B69DB43BA691340BB6120
:105260003B685B6803F40013002B03D0BA693B6909
:105270001343BB61274ABB69D360264B5B68BB61A4
:105280003B69DB43BA691340BB613B685B6803F46D
:105290000033002B03D0BA693B691343BB611D4A3D
:1052A000BB6953601B4B1B68BB613B69DB43BA693D
:1052B0001340BB613B685B6803F48033002B03D071
:1052C000BA693B691343BB61124ABB691360FB694E
:1052D0000133FB61FB690F2B7FF690AE00BF00BF6F
:1052E0002437BD465DF8047B704700BF003802409C
:1052F0000038014000000240000402400008024063
:10530000000C02400010024000140240001802404D
:10531000001C0240003C014080B483B000AF7860C4
:105320000B467B8013467B707B78002B03D07A88FA
:105330007B689A6103E07B881A047B689A6100BFEE
:105340000C37BD465DF8047B704780B485B000AF74
:1053500078600B467B807B685B69FB607A88FB68C2
:1053600013401A04FB68D9437B880B401A437B68BF
:105370009A6100BF1437BD465DF8047B704700009A
:1053800080B584B000AF78607B68002B01D1012329
:105390002BE17B6893F83D30DBB2002B06D17B68B4
:1053A000002283F83C207868FEF7AEFA7B6824225E
:1053B00083F83D207B681B681A687B681B6822F0B5
:1053C00001021A607B681B681A687B681B6842F4DC
:1053D00000421A607B681B681A687B681B6822F4AD
:1053E00000421A6001F0BAFBF8607B685B68814A92
:1053F000934207D8FB68804A934294BF012300235D
:10540000DBB206E0FB687D4A934294BF0123002390
:10541000DBB2002B01D00123E7E0FB68784AA2FB56
:1054200003239B0CBB607B681B685B6823F03F0118
:105430007B681B68BA680A435A607B681B681B6AF2
:1054400023F03F017B685B686A4A934202D8BB68DD
:10545000013309E0BB684FF4967202FB03F3694A1B
:10546000A2FB03239B0901337A6812680B43136282
:105470007B681B68DB6923F44F4222F0FF027B68E4
:105480005B685C498B4219D8FB68591E7B685B6876
:105490005B00B1FBF3F3591C40F6FC730B40002B8F
:1054A0000AD0FB68591E7B685B685B00B1FBF3F3B5
:1054B0000133C3F30B0351E004234FE07B689B6887
:1054C000002B11D1FB68581E7B6859680B465B00A6
:1054D0000B44B0FBF3F30133C3F30B03002B0CBFFE
:1054E00001230023DBB212E0FB68581E7B68596879
:1054F0000B469B000B4499000B44B0FBF3F30133C4
:10550000C3F30B03002B0CBF01230023DBB2002BE2
:1055100001D0012322E07B689B68002B0ED1FB6841
:10552000581E7B6859680B465B000B44B0FBF3F3D5
:105530000133C3F30B0343F400430FE0FB68581E31
:105540007B6859680B469B000B4499000B44B0FBE9
:10555000F3F30133C3F30B0343F440437968096861
:105560001343CB617B681B681B6823F0C0017B6819
:10557000DA697B681B6A1A437B681B680A431A60F6
:105580007B681B689B6823F4034323F0FF037A685E
:1055900011697A68D26811437A6812680B43936084
:1055A0007B681B68DB6823F0FF017B685A697B68B6
:1055B0009B691A437B681B680A43DA607B681B6837
:1055C0001A687B681B6842F001021A607B6800223F
:1055D0001A647B68202283F83D207B6800221A63CE
:1055E0007B68002283F83E20002318461037BD4612
:1055F00080BD00BFA08601007F841E00FF083D0023
:1056000083DE1B43D34D621080B588B002AFF860D3
:105610007A601A460B467B8113463B81FEF70CFFEE
:105620007861FB6893F83D30DBB2202B40F0E080DE
:105630007B690093192301227049F86800F058FC37
:105640000346002B01D00223D3E0FB6893F83C30E3
:10565000012B01D10223CCE0FB68012283F83C201E
:10566000FB681B681B6803F00103012B07D0FB6874
:105670001B681A68FB681B6842F001021A60FB682D
:105680001B681A68FB681B6822F400621A60FB68DA
:10569000212283F83D20FB68102283F83E20FB681E
:1056A00000221A64FB687A685A62FB683A895A8554
:1056B000FB685B8D9AB2FB681A85FB68504ADA6218
:1056C00079897B693A6AF86800F0C2FA0346002BD0
:1056D00001D001238DE000233B61FB681B685B69FF
:1056E0003B61FB681B689B693B613B6966E07A69CB
:1056F000396AF86800F0D2FC0346002B0DD0FB6835
:105700001B6C042B07D1FB681B681A68FB681B68BD
:1057100042F400721A6001236BE0FB685B6A1A783E
:10572000FB681B681A61FB685B6A5A1CFB685A625B
:10573000FB685B8D9BB2013B9AB2FB685A85FB68A4
:105740001B8D013B9AB2FB681A85FB681B685B697D
:1057500003F00403042B1BD1FB681B8D002B17D017
:10576000FB685B6A1A78FB681B681A61FB685B6AF6
:105770005A1CFB685A62FB685B8D9BB2013B9AB274
:10578000FB685A85FB681B8D013B9AB2FB681A8542
:105790007A69396AF86800F0C2FC0346002B0DD024
:1057A000FB681B6C042B07D1FB681B681A68FB683D
:1057B0001B6842F400721A6001231AE0FB681B8D1B
:1057C000002B94D1FB681B681A68FB681B6842F4C5
:1057D00000721A60FB68202283F83D20FB680022DB
:1057E00083F83E20FB68002283F83C20002300E081
:1057F000022318461837BD4680BD00BF02001000C6
:105800000000FFFF80B58CB002AFF8607A601A46E6
:105810000B467B8113463B81FEF70EFE7862FB68E8
:1058200093F83D30DBB2202B40F00B827B6A009373
:10583000192301227C49F86800F05AFB0346002B2B
:1058400001D00223FEE1FB6893F83C30012B01D12B
:105850000223F7E1FB68012283F83C20FB681B6808
:105860001B6803F00103012B07D0FB681B681A6853
:10587000FB681B6842F001021A60FB681B681A682B
:10588000FB681B6822F400621A60FB68222283F81E
:105890003D20FB68102283F83E20FB6800221A643A
:1058A000FB687A685A62FB683A895A85FB685B8DA7
:1058B0009AB2FB681A85FB685C4ADA6279897B6A6E
:1058C0003A6BF86800F046FA0346002B01D001233A
:1058D000B8E1FB681B8D002B13D100233B62FB68F2
:1058E0001B685B693B62FB681B689B693B623B6AA8
:1058F000FB681B681A68FB681B6842F400721A6038
:105900008CE1FB681B8D012B1BD1FB681B681A689F
:10591000FB681B6822F480621A600023FB61FB684D
:105920001B685B69FB61FB681B689B69FB61FB692A
:10593000FB681B681A68FB681B6842F400721A60F7
:105940006CE1FB681B8D022B1BD1FB681B681A687E
:10595000FB681B6822F480621A60FB681B681A6887
:10596000FB681B6842F400621A600023BB61FB689D
:105970001B685B69BB61FB681B689B69BB61BB699A
:105980004CE1FB681B681A68FB681B6842F4806284
:105990001A6000237B61FB681B685B697B61FB68A5
:1059A0001B689B697B617B6938E1FB681B8D032B5E
:1059B00000F2F180FB681B8D012B23D17A6A396BD1
:1059C000F86800F0EDFB0346002B01D0012339E11C
:1059D000FB681B681A69FB685B6AD2B21A70FB68C5
:1059E0005B6A5A1CFB685A62FB681B8D013B9AB2CA
:1059F000FB681A85FB685B8D9BB2013B9AB2FB6822
:105A00005A850BE1FB681B8D022B4ED17B6A0093FC
:105A10003B6B00220649F86800F06AFA0346002B47
:105A200008D001230EE100BF020010000000FFFFBC
:105A300004000100FB681B681A68FB681B6842F4DD
:105A400000721A60FB681B681A69FB685B6AD2B255
:105A50001A70FB685B6A5A1CFB685A62FB681B8DF4
:105A6000013B9AB2FB681A85FB685B8D9BB2013BD8
:105A70009AB2FB685A85FB681B681A69FB685B6A07
:105A8000D2B21A70FB685B6A5A1CFB685A62FB68E8
:105A90001B8D013B9AB2FB681A85FB685B8D9BB23C
:105AA000013B9AB2FB685A85B8E07B6A00933B6B76
:105AB00000226649F86800F01BFA0346002B01D06B
:105AC0000123BFE0FB681B681A68FB681B6822F4AF
:105AD00080621A60FB681B681A69FB685B6AD2B255
